:020000040800F2
:100000006804002001010008BB0F0008BD0E0008B5
:10001000B90F0008AB0300087512000800000000CB
:10002000000000000000000000000000DF0F0008DA
:10003000AD03000800000000DD0F0008E10F00081C
:100040001B0100081B0100081B0100081B01000820
:100050001B0100081B0100081B0100081B01000810
:100060001B0100081B0100081B0100081B01000800
:100070001B0100081B0100081B0100081B010008F0
:100080001B0100081B0100081B0100081B010008E0
:100090001B0100081B0100081B0100081B010008D0
:1000A0001B0100081B0100081B0100081B010008C0
:1000B0001B0100081B0100081B0100081B010008B0
:1000C0001B0100081B0100081B0100081B010008A0
:1000D0001B0100081B0100081B0100081B01000890
:1000E0001B0100081B0100081B010008DFF80CD0F1
:1000F00000F03AF90048004789140008680400201D
:100100000648804706480047FEE7FEE7FEE7FEE7B1
:10011000FEE7FEE7FEE7FEE7FEE7FEE75910000810
:10012000ED000008202A04DB203A21FA02F0002129
:10013000704721FA02F3D040C2F1200291400843F7
:10014000194670472DE9F04D81EA030404F0004B95
:1001500021F0004514464FF0000A23F0004150EA18
:10016000050220D054EA01021DD0C5F30A57024609
:10017000C5F31303C1F31300C1F30A5640F480150D
:1001800043F48013A7EB0608101BD64608F2FD388F
:1001900073EB050002D308F1010801E092185B41FE
:1001A000B8F1000F03DA00200146BDE8F08D002011
:1001B0004FF48011064684460EE0171B73EB0507CB
:1001C00005D3121B63EB050306434CEA010C4908F7
:1001D0004FEA300092185B4150EA0107EDD152EA34
:1001E000030012D082EA040083EA0501084305D027
:1001F000101BAB4106D20122002306E000224FF083
:10020000004302E06FF0010253101AEB06004CEBC2
:10021000085110EB0A0041EB0B01BDE8F04D00F076
:1002200046B80EB5C10F80EAE0700844CA07002145
:1002300040F233438DE80E000A460B4600F046F8C4
:1002400003B000BD70B5C1F30A5201F000450024AF
:10025000C1F3130140F2FF3341F480119A4201DAF5
:10026000002070BD40F233439A42A2F2334203DCD5
:100270005242FFF757FF00E090402C43F1D040423C
:1002800070BD30B50B46014600202022012409E054
:1002900021FA02F59D4205D303FA02F5491B04FA3F
:1002A00002F52844151EA2F10102F1DC30BD10B5A3
:1002B000141E73F1000408DA401C41F10001921889
:1002C0005B411A4301D120F0010010BD2DE9F04D32
:1002D00092469B4611B1B1FA81F202E0B0FA80F287
:1002E0002032904600F052F804460F4640EA0A00D9
:1002F00041EA0B0153465A46084313D0114653EACC
:10030000010019D0C8F140025046FFF70BFF054627
:100310000E4650465946424600F038F8084305D08C
:10032000012004E020463946BDE8F08D0020054359
:1003300046EAE0762C4337430A986305E40AA0EBCB
:1003400008000022FD0A44EA47540A3002D5002082
:100350000146E9E7010510196941DDE90845001981
:100360006941BDE8F04DA2E7064C074D06E0E068A4
:1003700040F0010394E8070098471034AC42F6D3EC
:10038000FFF7B8FE0C1500082C150008202A04DB26
:10039000203A00FA02F1002070479140C2F1200398
:1003A00020FA03F3194390407047FEE770470000BE
:1003B00010B500F043FD0149486010BD0400002065
:1003C00010B500F03BFD0B4C20606168884201D8FD
:1003D000A06809E0401AFFF724FF0022064BFFF750
:1003E000B1FEFFF72FFFA060002801DA0020A06017
:1003F00010BD0000040000200020594070B50446E4
:1004000000F0FAF80546601C02D004480078044465
:1004100000F0F2F8401BA042FAD370BD100000209B
:100420002DE9F84FDFF890A100220AF1040B1446E1
:1004300001274FF00F090BF1040E00BF0B6807FAFC
:1004400004F52B40AB4274D1DFF870C14E68A6EBC7
:100450000C0866452BD00DDC032E34D005DC36B3FA
:10046000012E19D0022E2FD11BE0112E16D0122EE4
:100470002AD119E0B8F5881F19D006DCB8F5803FFD
:1004800015D0B8F5801F1FD111E0B8F5001F0ED0B0
:10049000B8F5041F18D10AE0CA6815E0CA68121D31
:1004A00012E0CA6808320FE0CA680C320CE08A68B1
:1004B0002AB1012A4FF0080203D0456104E004226A
:1004C00002E0056100E00022FF2B01D8064601E0B2
:1004D00000F104064FEA840501D9A5F12005D6F8FC
:1004E00000C009FA05F82CEA080C02FA05F54CEAF6
:1004F000050CC6F800C04D68ED0057D5304DAE690B
:1005000046F00106AE61AD6924F0030605F0010571
:1005100000952C4D06EB050CDCF80850A6074FEAB9
:10052000167809FA08F6B543274EB04202D10026E4
:1005300010E03BE0254EB04201D101260AE0244EF6
:10054000B04201D1022605E0224EB04201D103267D
:1005500000E0042606FA08F62E43CCF808604D6841
:10056000DAF80060ED03554601D51E4300E09E43D6
:100570002E604D68DBF80060AD035D4601D51E437B
:1005800000E09E432E604D68DEF80060ED02754687
:1005900001D51E4300E09E432E604D68AD020E4D16
:1005A0002E6801D51E4300E09E432E60641C102C73
:1005B000FFF444AFBDE8F88F0004014000001110C3
:1005C000001002400000014000080140000C014002
:1005D00000100140001401400C04014080680840F4
:1005E00000D001207047C2684A40C26070470AB11B
:1005F000016170470904FBE701488068704700000B
:100600001000002002488168027811448160704720
:1006100010000020074810B5016841F0100101608A
:10062000032000F091F8002000F006F800F024F814
:10063000002010BD0020024070B50D4D04464FF45F
:100640007A712878B1FBF0F00A490968B1FBF0F043
:1006500000F021FB48B9102C07D200222146501E81
:1006600000F052F800206C6070BD012070BD0000E9
:10067000100000201C000020214808B5816941F0CD
:1006800001018161816901F001010091C16941F0BD
:100690008051C161C06900F080500090032000F0DB
:1006A00053F8002211466FF00B0000F02DF80022E5
:1006B00011466FF00A0000F027F8002211466FF093
:1006C000090000F021F800221146501F00F01CF82C
:1006D00000221146101F00F017F800221146901E4C
:1006E00000F012F800221146501E00F00DF80548E7
:1006F000416821F0E06141F00071416008BD0000F7
:100700000010024000000140F0B40E4B1B680C4684
:10071000C3F30223C3F10705042D00D90425191DD5
:10072000072901D2002300E0DB1E012606FA05F1AD
:10073000491E214099409E40761E16403143F0BC30
:1007400000F03CBC0CED00E0064900F00702086830
:100750004FF6FF03184040EA0220034A10430860A6
:10076000704700000CED00E00000FA052DE9F047AD
:10077000DFF83C8105460E46D8F8000000F007007F
:10078000B0420CD2D8F8001021F007013143C8F86C
:100790000010D8F8000000F00700B04263D12878BC
:1007A000444C800705D56068A96820F0F000084334
:1007B00060602878C00745D06868012816D0216895
:1007C000022816D0890700294DDA616821F003015B
:1007D00001436160FFF710FF6968074641F2883006
:1007E00001290FD00229814619D027E02168890309
:1007F000E9E78901E7E700BFFFF7FEFEC11B4945B6
:1008000001D918E081466068C0F381000128F3D166
:1008100018E000BFFFF7F0FEC11B49450BD8606828
:10082000C0F381000228F5D10CE000BFFFF7E4FE21
:10083000C11B494502D90320BDE8F087606810F06C
:100840000C0FF3D1D8F80010404601F00701B14277
:100850000BD9016821F0070131430160006800F005
:100860000700B04201D00120E6E72878400705D50F
:100870006068E96820F4E060084360602878000759
:1008800006D56068296920F4605040EAC1006060C4
:1008900000F03CF86168084AC1F30311515CC8409C
:1008A000064908600020FFF7C7FE0020C4E70000EB
:1008B0000020024000100240F41400081C00002038
:1008C00001480068704700001C00002004480549EA
:1008D00000684968044AC1F30221515CC84070476E
:1008E0001C000020001002400415000804480549BF
:1008F00000684968044AC1F3C221515CC84070478E
:100900001C000020001002400415000812A185B050
:100910000FC98DE80F0014A0144A006804905168B4
:10092000134801F00C03042B10D0082B0ED1C1F397
:100930008343C9031DF803000AD5516804AAC1F313
:100940004041515C0A4A5043B0FBF1F005B070479A
:1009500008494843FAE700000203040506070809AE
:100960000A0B0C0D0E0F10100102000000100240C7
:1009700000127A0000093D002DE9F84F0446007886
:10098000B94DC00748D06868C0F38100012807D07E
:100990006868C0F38100022809D16868C00306D5E1
:1009A0002868800338D5606800286FD034E060681C
:1009B000B0F5803F0BD010B1B0F5A02F11D0286852
:1009C00020F480302860286820F4802002E0286825
:1009D00040F480302860606888B1FFF70DFE06465D
:1009E00009E0286840F480202860F0E7FFF704FE63
:1009F000801B642875D828688003F7D50CE0FFF7C2
:100A0000FBFD064605E000BFFFF7F6FD801B6428EE
:100A1000F0D828688003F7D42078944E80074FF0F0
:100A200001094FF000083BD5686810F00C0F07D0A3
:100A30006868C0F38100022809D16868C00306D441
:100A40002868800714D5206901281FD110E020698B
:100A5000B0B1C6F80090FFF7CFFD074605E000BF34
:100A6000FFF7CAFDC01B0228C4D828688007F7D545
:100A70002868616920F0F80040EAC10028600FE0B2
:100A8000C6F80080FFF7B8FD074606E0E9E000BFC2
:100A9000FFF7B2FDC01B022823D828688007F7D4CF
:100AA000207800072CD57248A169D9B1C0F8009010
:100AB000FFF7A2FD074604E0FFF79EFDC01B0228DA
:100AC0000FD8686A8007F7D56A484FF4FA51006872
:100AD000B0FBF1F0009000BF0098411E0091FAD2E7
:100AE0000EE080E0C0F80080FFF786FD074604E0D6
:100AF000FFF782FDC01B022875D8686A8007F7D40B
:100B00002078400760D5E8690027C00008D4E8696C
:100B100040F08050E861E869012700F080500090C3
:100B200055480168C90513D40168834641F48071B2
:100B30000160FFF761FD824606E000BFFFF75CFD44
:100B4000A0EB0A0064284ED8DBF80000C005F5D5FC
:100B5000E06801280AD008B1052813D0286A20F0DF
:100B600001002862286A20F0040002E0286A40F0B0
:100B700001002862E06841F2883B98B1FFF73CFD34
:100B800082460BE0286A40F004002862EEE700BFCE
:100B9000FFF732FDA0EB0A0159455AD8286A8007B1
:100BA000F6D50CE0FFF728FD824605E0FFF724FDAF
:100BB000A0EB0A0159454CD8286A8007F6D41FB12A
:100BC000E86920F08050E861E06988B36968C1F3A2
:100BD0008101022945D00228C6F8608004D0FFF7C1
:100BE0000BFD044638E034E0FFF706FD074604E05D
:100BF000FFF702FDC01B02282BD828688001F7D41C
:100C0000206AB0F5803F05D16868A16820F4003003
:100C100008436860D4E908010843696821F4741145
:100C200008436860C6F86090FFF7E6FC044606E0FB
:100C300015E000BFFFF7E0FC001B022809D8286878
:100C40008001F7D50BE000BFFFF7D6FC001B0228A0
:100C500002D90320BDE8F88F28688001F4D4002071
:100C6000F8E70120F6E700000010024000004242D1
:100C7000800442421C000020007000404FF0E02140
:100C80000428086903D020F004000861704740F090
:100C90000400FAE7704710B5401EB0F1807F01D321
:100CA000012010BD4FF0E02460610F21601700F0BB
:100CB00085F90020A06107202061002010BD10B53B
:100CC000FFF7E8FF10BD70B5040004D094F83900B8
:100CD000002510B106E0012070BD84F83850204690
:100CE00000F022F8242084F839002068C16821F43B
:100CF0000051C160204600F0D3F92068016921F459
:100D0000904101612068416921F02A014161206818
:100D1000C16841F40051C160E563202084F83900C6
:100D200084F83A00002070BD10B50068114986B003
:100D300088421DD11048816941F4804181618069F8
:100D40000E4C00F4804004904FF40070009002209C
:100D500001900320039069462046FFF761FB0021C4
:100D60002015CDE90001029169462046FFF758FBA6
:100D700006B010BD003801400010024000080140DC
:100D80002DE9F843044690F839001F4616460D46F3
:100D9000202850D1A5B19EB194F8380001284AD03E
:100DA000012084F838004FF00008C4F83C8021206E
:100DB00084F83900FFF720FCA6848146E68426E00B
:100DC0000120BDE8F883E08C401EE084A0684B461B
:100DD000B0F5805F4FF000024FF080012046009791
:100DE00003D000F015FAE8B90DE000F011FAC8B927
:100DF00028882168C0F308004860206908B16D1C8C
:100E000005E0AD1C03E0216815F8010B4860E08C9B
:100E10000028D8D14B46002240212046009700F000
:100E2000F7F908B10320CCE7202084F8390084F8D2
:100E300038800020C5E70220C3E7000070B501201C
:100E400000F0FCFA1C4E002201213046FFF7CFFBD8
:100E5000002402213046FFF7C1FB0028F9D100250C
:100E6000012211463046FFF7C2FB6400012000F06A
:100E7000E5FA002201213046FFF7B9FB0221304696
:100E8000FFF7ACFB00B1641C012000F0D7FA6D1C29
:100E9000EDB2182DE4D3012211463046FFF7A7FB2F
:100EA00084F40004012000F0C9FA00220121304638
:100EB000FFF79DFB204670BD000C0140FEE70000DF
:100EC0002DE9F041264886B0816941F01001816129
:100ED000816901F010010491816941F02001816173
:100EE000816901F020010491816941F0080181616B
:100EF000816901F008010491816941F00401816177
:100F00008069184F00F004004FF400540490002250
:100F100021463846FFF76BFBDFF84C800122114673
:100F20004046FFF764FB009401AA01240025022635
:100F300082E8700069463846FFF772FA01AA009409
:100F400082E8700069464046FFF76AFA0096CDE9EC
:100F5000015469464046FFF763FA06B0BDE8F081E8
:100F60000010024000100140000C01400D4810B577
:100F70000B4901604FF4E1314160002181600C2296
:100F8000C160C0E904128161C161FFF79CFE0028C5
:100F900005D0BDE81040422103A000F06CB910BD9F
:100FA00000380140240000202E2E2F5372632F752D
:100FB000736172742E630000FEE770470907090E23
:100FC000002806DA00F00F0000F1E02080F8141D80
:100FD000704700F1E02080F80014704770477047B8
:100FE00010B5FFF70FFBBDE81040FFF768BE30B546
:100FF0008FB001210804CDE90010002402940225DD
:101000000491CDE907504FF4E01009906846FFF7CE
:10101000B3FC00B1FEE70F20CDE90A054FF4806074
:10102000CDE90C4002210AA80E94FFF79FFB00B106
:10103000FEE7FFF745FC4FF47A71B0FBF1F0FFF7E4
:101040002AFE0420FFF71AFE00221146501EFFF769
:101050005BFB0FB030BD00000D48016841F001019D
:10106000016041680B4A1140416001680A4A114021
:101070000160016821F480210160416821F4FE01D2
:1010800041604FF41F0181600449C003086070474C
:10109000001002400000FFF8FFFFF6FE08ED00E040
:1010A0002DE9F041044600680169E26821F44051ED
:1010B000114301612169A0680843616908432168FF
:1010C000CA6841F20C639A430243CA6020684169CE
:1010D000A26921F44071114341614C4920686425A3
:1010E000322688423CD1FFF701FC00EBC00101EB46
:1010F000001061688900B0FBF1F7FFF7F7FB00EB28
:10110000C00101EB00106168B0468900B0FBF1F04E
:10111000B0FBF5F06FF01801484307EB800106EBD8
:101120000110B0FBF5F000F0F006FFF7DFFB00EB7D
:10113000C00101EB001061688900B0FBF1F0B0FB69
:10114000F5F006EB0016FFF7D1FB00EBC00101EB59
:10115000001061688900B0FBF1F7FFF7C7FB3BE0C7
:10116000FFF7B4FB00EBC00101EB001061688900E0
:10117000B0FBF1F7FFF7AAFB00EBC00101EB001099
:101180006168B0468900B0FBF1F0B0FBF5F06FF09C
:101190001801484307EB800106EB0110B0FBF5F0A6
:1011A00000F0F006FFF792FB00EBC00101EB00102E
:1011B00061688900B0FBF1F0B0FBF5F006EB0016BA
:1011C000FFF784FB00EBC00101EB001061688900B0
:1011D000B0FBF1F7FFF77AFB00EBC00101EB001069
:1011E00061688900B0FBF1F0B0FBF5F06FF0180119
:1011F000484307EB800108EB0110B0FBF5F02168D4
:1012000000F00F0030448860BDE8F08100380140F4
:101210002DE9F041984617460E460446069D1DE00E
:10122000681C1BD02DB1FFF7E7F9A0EB0800A8421E
:1012300014D92068C16821F4D071C1602068416967
:1012400021F001014161202084F8390084F83A003E
:10125000002084F838000320BDE8F0812068006891
:1012600036EA000004D00020B842D9D00020F3E7CD
:101270000120F9E7FEE7FEE70FB4054B10B503A91F
:10128000044A029800F018F810BC5DF814FB000046
:10129000711400082000002002E008C8121F08C1D5
:1012A000002AFAD170477047002001E001C1121FE7
:1012B000002AFBD1704700002DE9FF4F89B09B4603
:1012C0000446002506E025280BD05A460B99904786
:1012D000641C6D1C20780028F5D10DB02846BDE8AF
:1012E000F08F0027B8460122474900E0074314F871
:1012F000013F203B02FA03F00842F7D120782E2864
:1013000019D114F8010F47F004072A280ED06FF006
:101310002F022078A0F1300109290CD808EB8801B0
:1013200002EB410100EB0108641CF2E70A98641C1F
:1013300050F8048B0A9020780028CED0642808D07A
:10134000692806D075281ED05A460B9990476D1C07
:1013500058E00A994FF00A0901C90A91002802DAF7
:1013600040422D2102E0390504D52B218DF82010B3
:10137000012103E0F90704D02021F7E78A4608AEEF
:101380000DE00021FAE70A994FF00A0901C90A9114
:10139000F7E74946FEF775FF303106F8011D0028D2
:1013A000F7D1ADEB060000F12009780701D44FF02A
:1013B0000108C84502DDA8EB090000E000208046D6
:1013C000002706E008A85A46C05D0B9990476D1C9F
:1013D0007F1C5745F6DB04E030205A460B999047B6
:1013E0006D1CB8F10001A8F10108F5DC05E016F864
:1013F000010B5A460B9990476D1CB9F10001A9F1F8
:101400000109F4DC641C65E70928010010B50446F5
:101410000420FFF733FC0148046010BD00000020E9
:1014200070B5054600244FF47A7603E0304600F0AC
:1014300005F8641CAC42F9D370BD000070B54FF0E4
:10144000E024002265690949A36909684843A16944
:101450009942FCD002D2A3EB010302E0A5EB010606
:1014600033441A440B468242F1D370BD0000002081
:1014700013B50A23012269460248FFF781FC009850
:101480001CBD000024000020FFF7C4F84820FFF72F
:10149000BDFFFFF7ACFDFFF713FDFFF767FD4FF44E
:1014A0007A742046FEF7AAFFFEF782FF2046FEF779
:1014B000A5FFFEF77DFF0A4C0A4E4FF4005500BF12
:1014C000FEF77EFF208881B207A0FFF7D5FE2946F0
:1014D0003046FFF788F8C820FFF7A2FFF0E70000CA
:1014E0000C000020001001400D2031332025642025
:1014F0000A000000000000000000000001020304D8
:101500000607080900000000010203042C1500086A
:101510000000002024000000981200085015000868
:101520002400002044040000A8120008000000006D
:1015300000000000000000000000000001000000AA
:10154000100000000000000000A24A04000000009B
:04000005080000ED02
:00000001FF
