:020000040800F2
:10000000203900209901000819280008512600080D
:1000100015280008150700086550000800000000BA
:1000200000000000000000000000000001010008C6
:100030008107000800000000450100080D2E00089F
:10004000B3010008B3010008B3010008B3010008C0
:10005000B3010008B3010008B3010008B3010008B0
:10006000B3010008B3010008B3010008B3010008A0
:10007000B3010008B3010008B301000845070008F8
:10008000B3010008B3010008B3010008B301000880
:10009000CD4F0008B3010008B3010008B301000808
:1000A000B3010008B3010008B3010008B301000860
:1000B000B3010008B3010008152F0008B3010008C0
:1000C000B3010008B3010008B3010008B301000840
:1000D000B30100085D340008B3010008B301000853
:1000E000B3010008B3010008B3010008DFF80CD029
:1000F00000F0BCFA00480047695100082039002090
:10010000224B19680868B0E8F00F80F30988BFF344
:100110006F8F4FF0000080F311884EF00D0E704786
:100120000000000006480068006880F3088862B696
:1001300061B6BFF34F8FBFF36F8F00DF00BF00BF0B
:1001400008ED00E0EFF30980BFF36F8F0F4B1A68E3
:1001500020E9F00F106008B54FF0500080F31188CF
:10016000BFF34F8FBFF36F8F06F02AF94FF00000F7
:1001700080F31188BDE8084019680868B0E8F00FFE
:1001800080F30988BFF36F8F704700BF30010020F4
:10019000EFF3058070470000064880470648004797
:1001A000FEE7FEE7FEE7FEE7FEE7FEE7FEE7FEE727
:1001B000FEE7FEE7BD2E0008ED000008202A04DB64
:1001C000203A21FA02F00021704721FA02F3D040D0
:1001D000C2F12002914008431946704740EA0103EA
:1001E0009B0703D009E008C9121F08C0042AFAD2ED
:1001F00003E011F8013B00F8013B521EF9D27047B1
:100200002DE9FE4F804681EA0300C00F0C460090A6
:1002100021F0004123F00045B8EB0200A94105D2CE
:100220004046214690461C460B46024623F00040BD
:10023000104347D0270DC7F30A00C3F30A510290B9
:10024000401A019040286BDAC3F3130040F4801B7E
:100250000098924620B10023D2EB030A63EB0B0B0C
:1002600001985946C0F14002504600F081F9064617
:100270000D4650465946019A00F089F910EB0800E6
:100280006141002487EA115284EAE7731A4340D09F
:10029000009A62B3019A012A4FEA075215DC001B4B
:1002A00061EB02014FF0004202EA0752CDE9004241
:1002B000001C41F5801132462B4600F089F903B04D
:1002C000BDE8F08F40462146F9E7001B61EB0201D3
:1002D000001C41F5801300185B412018A2F500179F
:1002E00047EB030140EAD570B6196D4111E06D0886
:1002F0004FEA360645EAC0754FEA0752001B61EB2C
:100300000201001C41F5801149084FEA3000001934
:10031000514132462B4603B0BDE8F04F00F049B9D9
:100320000098012240000023D0EB020263EBE0734F
:10033000009821464FEAE074B8EB000061EB04013D
:10034000E9E783F000435BE781F0004158E72DE9DE
:10035000FE4F81EA030404F0004421F000410094C0
:100360004FF0000B23F0004350EA01045ED052EA44
:1003700003045BD0C3F30A54C1F30A552C44A4F21E
:10038000F3340194A0FB0254C1F3130141F4801132
:10039000C3F3130343F4801301FB024400FB034E39
:1003A000840A970A44EA815447EA8357A4FB076802
:1003B00002958D0A05FB07854FEA932C04FB0C542C
:1003C0002705029D4FEA065847EA1637B5EB0805A0
:1003D0006EEB070C870E920E47EA811742EA8312F2
:1003E000A7FB0201B6EB0B0164EB00042B0D43EA03
:1003F0000C335E1844EB1C50DA465146E7FB020111
:10040000C5F313044FEA0B3343EA14534FEA0432A3
:10041000019C43EA0603A4F10C040294009CCDE97C
:1004200000B400F0D5F803B0BDE8F08F002001461D
:10043000F9E72DE9F04D81EA030404F0004B21F0C7
:10044000004514464FF0000A23F0004150EA05022F
:1004500020D054EA01021DD0C5F30A570246C5F365
:100460001303C1F31300C1F30A5640F4801543F49B
:100470008013A7EB0608101BD64608F2FD3873EB75
:10048000050002D308F1010801E092185B41B8F1C0
:10049000000F03DA00200146BDE8F08D00204FF484
:1004A0008011064684460EE0171B73EB050705D343
:1004B000121B63EB050306434CEA010C49084FEAA3
:1004C000300092185B4150EA0107EDD152EA030077
:1004D00012D082EA040083EA0501084305D0101B0C
:1004E000AB4106D20122002306E000224FF0004378
:1004F00002E06FF0010253101AEB06004CEB0851BA
:1005000010EB0A0041EB0B01BDE8F04D00F051B8D3
:100510000EB5C10F80EAE0700844CA07002140F21E
:1005200033438DE80E000A460B4600F051F803B045
:1005300000BD70B5C1F30A5201F000450024C1F3BB
:10054000130140F2FF3341F480119A4201DA002096
:1005500070BD40F233439A42A2F2334203DC52426E
:10056000FFF72CFE00E090402C43F1D0404270BDDC
:10057000202A04DB203A00FA02F100207047914063
:10058000C2F1200320FA03F3194390407047202A58
:1005900006DBCB17203A41FA02F043EAE07306E0AB
:1005A00041FA02F3D040C2F12002914008431946BB
:1005B000704710B5141E73F1000408DA401C41F1B5
:1005C000000192185B411A4301D120F0010010BDD7
:1005D0002DE9F04D92469B4611B1B1FA81F202E04D
:1005E000B0FA80F220329046FFF7C2FF04460F4671
:1005F00040EA0A0041EA0B0153465A46084313D029
:10060000114653EA010019D0C8F140025046FFF7E5
:10061000D5FD05460E46504659464246FFF7A8FF0F
:10062000084305D0012004E020463946BDE8F08D9E
:100630000020054346EAE0762C4337430A986305D9
:10064000E40AA0EB08000022FD0A44EA47540A30FD
:1006500002D500200146E9E7010510196941DDE9ED
:10066000084500196941BDE8F04DA2E7064C074D69
:1006700006E0E06840F0010394E807009847103472
:10068000AC42F6D3FFF736FD4473000864730008EC
:1006900070B58C1810F8015B15F0070301D110F844
:1006A000013B2A1106D110F8012B03E010F8016B71
:1006B00001F8016B5B1EF9D12B0705D40023521EF4
:1006C0000DD401F8013BFAE710F8013BCB1A921C5C
:1006D00003E013F8015B01F8015B521EF9D5A1425A
:1006E000D8D3002070BD000010B500224FF4804127
:1006F000074800F0B9FBC82004F053FD0122910324
:10070000034800F0B1FBC82004F04BFD10BD000011
:10071000000C014000BFFEE700207047002070473A
:1007200010B50446202221460448FFF757FD022158
:100730000348006804F0B0FE002010BDEA0B002062
:10074000F800002010B5024800F090F810BD00003D
:100750009402002030B590F840500124AC40C56BA5
:100760006C60046863604468102C04D10468A26063
:100770000468E16003E00468A1600468E26030BDE1
:100780007047014600200A68126822F00E020B68CA
:100790001A600A68126822F001020B681A6091F868
:1007A000403001229A40CB6B5A60012281F821200F
:1007B00000BF002281F8202000BF704770B50446BA
:1007C000002594F82100022803D00420A06301250D
:1007D00048E02068006820F00E002168086020686A
:1007E000006820F00100216808601F4920688842E5
:1007F00001D1012026E01C4914312068884201D132
:1008000010201FE0184928312068884201D1801546
:1008100018E015493C312068884201D1801411E06C
:10082000114950312068884202D14FF4803009E0EC
:100830000D4964312068884202D14FF4801001E0F4
:100840004FF08070084908394860012084F8210081
:1008500000BF002084F8200000BF606B10B120466C
:10086000616B8847284670BD0800024070B5044699
:10087000E06B05682068066894F840100420884002
:100880002840002846D006F00400002842D0206806
:10089000006800F0200028B92068006820F00400FB
:1008A0002168086057492068884201D1042027E068
:1008B000544914312068884201D1402020E0514938
:1008C00028312068884201D1001519E04D493C319A
:1008D0002068884202D14FF4804011E049495031EC
:1008E0002068884202D14FF4802009E045496431F4
:1008F0002068884202D14FF4800001E04FF0806010
:10090000404908394860E06A00287AD02046E16A08
:10091000884776E094F84010022088402840A0B331
:1009200006F0020088B32068006800F0200040B99B
:100930002068006820F00A0021680860012084F81F
:10094000210030492068884201D1022028E02D4949
:1009500014312068884201D1202021E02949283122
:100960002068884201D140151AE026493C312068B0
:10097000884202D14FF4005012E0224950312068E1
:10098000884203D14FF400300AE017E01D4964317A
:100990002068884202D14FF4001001E04FF000704F
:1009A00018490839486000BF002084F8200000BFC3
:1009B000A06A30B32046A16A884722E094F840102C
:1009C000082088402840E0B106F00800C8B120683F
:1009D000006820F00E002168086094F840100120A3
:1009E0008840E16B48600120A06384F8210000BFCB
:1009F000002084F8200000BF206B10B12046216B3E
:100A0000884770BD080002400146002209B9012054
:100A10007047184B0868C01A1423B0FBF3F080002D
:100A2000086414480838C863022081F82100086867
:100A3000026843F6F0708243D1E901031843CB68A2
:100A400018430B6918434B6918438B691843CB69EA
:100A5000184302430868026000208862C862086385
:100A600048638863012081F82100002081F820007C
:100A700000BFCDE7080002402DE9F04104460D46D5
:100A800016461F464FF0000800BF94F820000128CA
:100A900002D10220BDE8F081012084F8200000BFCF
:100AA00094F8210001282CD1022084F82100002094
:100AB000A0632068006820F00100216808603B46C0
:100AC000324629462046FFF745FEE06A30B12068ED
:100AD000006840F00E00216808600BE020680068A4
:100AE00020F00400216808602068006840F00A00D7
:100AF000216808602068006840F0010021680860F3
:100B000006E000BF002084F8200000BF4FF002087C
:100B10004046BFE770B5044600F0ACF906462546EE
:100B2000681C10B104480078054400BF00F0A2F929
:100B3000801BA842FAD370BD040100202DE9F847BC
:100B400003460024002000258446002700226EE191
:100B50004FF0010808FA02F4D1F8008008EA040016
:100B6000A0427DD1DFF8D0A2D1F80480A8EB0A0919
:100B7000D0453AD014DCB8F1030F50D009DCB8F1FD
:100B8000000F31D0B8F1010F1CD0B8F1020F49D1DC
:100B900020E0B8F1110F18D0B8F1120F42D11EE0C9
:100BA000B9F5881F25D006DCB9F5803F20D0B9F50E
:100BB000801F37D11AE0B9F5001F18D0B9F5041F0E
:100BC00030D117E0D1F80CC02DE0D1F80C8008F13D
:100BD000040C28E0D1F80C8008F1080C23E0D1F8CF
:100BE0000C8008F10C0C1EE000BF00BF00BF00BF6E
:100BF00000BF00BFD1F80880B8F1000F02D14FF05C
:100C0000040C0BE0D1F80880B8F1010F03D14FF0CC
:100C1000080C1C6102E04FF0080C5C6103E04FF02F
:100C2000000C00E000BF00BFFF2801D8984601E09B
:100C300003F104084646FF2802D84FEA820803E081
:100C4000A2F108084FEA88084746D6F800804FF01E
:100C50000F0909FA07F928EA09080CFA07F900E070
:100C600088E048EA0908C6F80080D1F8048008F056
:100C70008058B8F1805F7DD100BFDFF8C081D8F81F
:100C8000188048F00108DFF8B491C9F81880C84608
:100C9000D8F8188008F00108CDF8008000BF00BF28
:100CA0004FEAB9384FEA920958F829504FEA82784A
:100CB0004FEA18794FF00F0808FA09F825EA0805F5
:100CC000DFF87C81434502D14FF0000816E0DFF8E1
:100CD0007481434502D14FF001080FE0DFF86881CD
:100CE000434502D14FF0020808E0DFF86081434538
:100CF00002D14FF0030801E04FF004084FEA827977
:100D00004FEA197908FA09F848EA0505DFF8408141
:100D10004FEA920948F82950D1F8048008F4803845
:100D2000B8F5803F0AD1DFF82C81D8F8008048EA76
:100D30000008DFF82091C9F8008009E0DFF814818D
:100D4000D8F8008028EA0008DFF80891C9F8008088
:100D5000D1F8048008F40038B8F5003F10D1DFF86E
:100D6000F48008F10408D8F8008048EA0008DFF8A9
:100D7000E49000E05AE009F10409C9F800800DE0B0
:100D8000DFF8D08008F10408D8F8008028EA0008CD
:100D9000DFF8C09009F10409C9F80080D1F8048097
:100DA00008F48018B8F5801F0ED1DFF8A88008F18C
:100DB0000808D8F8008048EA0008DFF8989009F1A0
:100DC0000809C9F800800DE0DFF8888008F10808FC
:100DD000D8F8008028EA0008DFF8789009F10809BF
:100DE000C9F80080D1F8048008F40018B8F5001F95
:100DF0000ED1DFF8608008F10C08D8F8008048EACE
:100E00000008DFF8509009F10C09C9F800800DE0E6
:100E1000DFF8408008F10C08D8F8008028EA0008C4
:100E2000DFF8309009F10C09C9F80080521C102A33
:100E3000FFF48EAEBDE8F8870000111000100240EC
:100E400000080140000C0140001001400014014066
:100E50000800014000040140024693680B400BB1BA
:100E6000012000E0002070470AB1016101E00B049D
:100E7000036170470148006870470000FC000020D3
:100E8000034800680349097808440149086070472D
:100E9000FC0000200401002010B50848006840F064
:100EA000100006490860032000F0EEF8002000F072
:100EB00007F800F049F8002010BD000000200240B3
:100EC00070B588B0044600250026002221461E2069
:100ED00000F09BF81E2000F08BF800BF1648C06998
:100EE00040F004001449C8610846C06900F00400DD
:100EF000019000BF00BF02A903A800F07DFD00F033
:100F0000A3FD45000D48B5FBF0F0461E0C480D4909
:100F1000086040F2E7310B48C16046600021016182
:100F2000816001F04BF820B9064801F062F808B082
:100F300070BD0120FBE700000010024040420F009E
:100F400000080040940B002008B500BF26488069C7
:100F500040F00100244988610846806900F00100E2
:100F6000009000BF00BF00BF0846C06940F080503D
:100F7000C8610846C06900F08050009000BF00BF03
:100F8000032000F081F8002211466FF00B0000F002
:100F90003CF8002211466FF00A0000F036F80022FB
:100FA00011466FF0090000F030F800221146501F82
:100FB00000F02BF800221146101F00F026F8002246
:100FC0000F21901E00F021F800220F21501E00F08A
:100FD0001CF800BF0549486820F0E06040F0007050
:100FE000486000BF08BD0000001002400000014042
:100FF00000BF00F01F02012191404209920002F15E
:10100000E022C2F8001100BF70472DE9F05F804672
:101010000D461646002701F001FC074639462A46D0
:10102000334601F00700C0F1070ABAF1040F02D9F4
:101030004FF0040A01E0C0F1070AD14600F1040AAA
:10104000BAF1070F02D24FF0000A01E0A0F1030A43
:10105000D4464FF0010A0AFA09FAAAF1010A0AEA8B
:10106000020A0AFA0CFA4FF0010B0BFA0CFBABF177
:10107000010B0BEA030B4AEA0B042146404601F040
:10108000D5FBBDE8F09F000000BF00F00702064B53
:1010900019684FF6FF031940044B0B4343EA022142
:1010A000014B196000BF70470CED00E00000FA052D
:1010B00070B505460C46002104F08000802806D15A
:1010C00004F07F0605F1280000EB461103E005F56A
:1010D0000A7000EB44111AB9002088728B8004E07A
:1010E00001208872CB80180C0881002070BD7047E9
:1010F00070B504460D4604F1280101EB45114A691B
:101100002946D4F85C0402F0A1FD70BD70B5044618
:101110000D4604F50A7101EB45114A692946D4F8D8
:101120005C0402F000FE70BD70B504460D4600265A
:1011300005F08000802806D105F07F0104F1280029
:1011400000EB411605E005F07F0104F50A7000EBA5
:10115000411605F07F00307005F08000C009707006
:1011600000BF94F82804012801D1022070BD01209D
:1011700084F8280400BF3146206803F0B8FB00BFA4
:10118000002084F8280400BF00BFEFE770B50446D4
:101190000D46002605F08000802806D105F07F016D
:1011A00004F1280000EB411603E004F50A7000EB9F
:1011B00045160020B07005F07F003070C5F3C010F8
:1011C000707000BF94F82804012801D1022070BD7E
:1011D000012084F8280400BF3146206803F0B4FCE5
:1011E00000BF002084F8280400BF00BFEFE72DE90E
:1011F000F04704460D46174698464FF00009002672
:1012000005F08000802806D105F07F0104F1280058
:1012100000EB411605E005F07F0104F50A7000EBD4
:10122000411605F07F00307005F08000C009707035
:10123000376186F8038000BF94F82804012802D1A2
:101240000220BDE8F087012084F8280400BF314661
:10125000206803F073F900BF002084F8280400BF61
:101260004846EEE72DE9F04105460E4617469846FA
:10127000002406F07F0105F50A7000EB4114676158
:10128000C4F818800020E061607006F07F002070D4
:1012900006F07F0020B92146286803F0F2FC03E045
:1012A0002146286803F0EDFC0020BDE8F08170B510
:1012B00004460D46002605F08000802806D105F082
:1012C0007F0104F1280000EB411603E004F50A70E9
:1012D00000EB45160120B07005F07F003070C5F3BB
:1012E000C010707000BF94F82804012801D10220BA
:1012F00070BD012084F8280400BF3146206803F047
:101300007DFC05F07F0020B904F22C41206803F039
:1013100018FC00BF002084F8280400BF00BFE7E7E6
:101320002DE9F04105460E4617469846002406F082
:101330007F0105F1280000EB41146761C4F81880B3
:101340000020E0610120607006F07F00207006F050
:101350007F0020B92146286803F093FC03E0214672
:10136000286803F08EFC0020BDE8F08110B504462B
:10137000206803F033FE00F40040B0F5004F02D1C6
:10138000204601F067FA206803F028FE00F4806030
:10139000B0F5806F0ED12068B0F8440020F4806072
:1013A0002168A1F84400204600F044F900212046BD
:1013B00000F063F9206803F011FE00F48040B0F5FE
:1013C000804F07D12068B0F8440020F480402168A5
:1013D000A1F84400206803F001FE00F40050B0F5CD
:1013E000005F07D12068B0F8440020F40050216865
:1013F000A1F84400206803F0F1FD00F48050B0F53E
:10140000805F1AD12068B0F8400020F00400216805
:10141000A1F840002068B0F8400020F008002168E2
:10142000A1F84000204600F01AF92068B0F8440006
:1014300020F480502168A1F84400206803F0CEFD1C
:1014400000F40060B0F5006F20D12068B0F84000D3
:1014500040F008002168A1F840002068B0F844007E
:1014600020F400602168A1F844002068B0F8400032
:1014700040F004002168A1F84000206803F0AEFDB0
:10148000C0F3003010B9204600F03AF9206803F0AC
:10149000A5FD00F40070B0F5007F0AD12068B0F817
:1014A000440020F400702168A1F84400204600F0B8
:1014B000DDF8206803F092FD00F48070B0F5807FC5
:1014C00007D12068B0F8440020F480702168A1F8AA
:1014D000440010BD30B585B00446002514B9012084
:1014E00005B030BD94F8290428B9002084F82804F8
:1014F000204600F07DF8032084F82904206803F0DA
:1015000015FB142204F110016846FEF767FE94E80B
:101510000F0003F0E8F90021206803F078FD0025B2
:1015200025E0012104F1280000EB4510417004F191
:10153000280000EB4510057004F1280000EB451071
:101540008581002104F1280000EB4510C17004F1F1
:10155000280000EB4510016104F1280000EB451064
:10156000416104F1280000EB451081616D1C0F2DD5
:10157000D7D3002524E0002104F50A7000EB4510C4
:10158000417004F50A7000EB4510057004F1280065
:1015900000EB4510858104F50A7000EB4510C17021
:1015A00004F50A7000EB4510016104F50A7000EBC8
:1015B0004510416104F50A7000EB451081616D1C16
:1015C0000F2DD8D3142204F110016846FEF706FE51
:1015D00094E80F0003F09BFA002084F82400012017
:1015E00084F82904206803F08FFA002078E70000CF
:1015F00038B504460D492068884215D100BF0C4813
:10160000C06940F400000A49C8610846C06900F496
:101610000000009000BF00BF002205211420FFF74A
:10162000F4FC1420FFF7E4FC38BD0000005C00402F
:101630000010024070B504460125A068022801D1BF
:1016400000BF01E0012500BF00BF2946D4F85C04BB
:1016500002F0A8FCD4F85C0402F06AFC70BD10B57E
:101660000446D4F85C0402F085FC10BD10B50446B5
:10167000D4F85C0402F085FC10BD70B504460D463C
:1016800000BF94F82804012801D1022070BD012078
:1016900084F8280400BF84F824502946206803F009
:1016A000B9FC00BF002084F8280400BF00BFEDE7AC
:1016B00010B5044604F22C41D4F85C0402F098FC06
:1016C00010BD10B5044600BF94F82804012801D1CC
:1016D000022010BD012084F8280400BF012120460B
:1016E000FFF705FD206803F00CFA206803F062FCA8
:1016F00000BF002084F8280400BF00BFE9E7000015
:1017000010B50446D4F85C0402F0E9FCA06928B1E5
:101710000348006840F006000149086010BD000061
:1017200010ED00E0F8B5044600260025207800F012
:10173000010000286BD000274348C06900F08050AA
:1017400070B900BF4048C06940F080503E49C86150
:101750000846C06900F08050009000BF00BF01271C
:101760003A48006800F48070B0B93848006840F426
:10177000807036490860FFF77DFB064606E0FFF7FC
:1017800079FB801B642801D90320F8BD2F4800682D
:1017900000F480700028F2D02B48006A00F44075F5
:1017A0002DB3A08800F44070A84220D02648006ADB
:1017B00020F4407501202649086000200860224876
:1017C000056205F0010090B1FFF754FB064608E002
:1017D000FFF750FB801B41F28831884201D903207A
:1017E000D3E71948006A00F002000028F0D016483C
:1017F000006A20F440706168084313490862012FB1
:1018000004D10846C06920F08050C86100BF20782C
:1018100000F00200022807D10B48406820F4404045
:10182000A168084308494860207800F0100010289B
:1018300007D10548406820F48000E1680843024968
:1018400048600020A1E70000001002400070004046
:101850004004424270B504460D46002662480068C6
:1018600000F00700A8420ED25F48006820F0070091
:1018700028435D4908600846006800F00700A84258
:1018800001D0012070BD207800F00200022807D1AD
:101890005648406820F0F000A1680843534948606A
:1018A000207800F0010000285DD06068012806D192
:1018B0004E48006800F4003090B90120E2E760680B
:1018C000022806D14948006800F0007040B90120A4
:1018D000D8E74648006800F0020008B90120D1E7C7
:1018E0004248406820F00300616808433F4948606F
:1018F000FFF7C0FA06466068012810D108E0FFF73C
:10190000B9FA801B41F28831884201D90320B9E736
:101910003648406800F00C000428F0D123E06068ED
:10192000022810D108E0FFF7A5FA801B41F28831A8
:10193000884201D90320A5E72C48406800F00C003C
:101940000828F0D10FE008E0FFF794FA801B41F27D
:101950008831884201D9032094E72448406800F088
:101960000C000028F0D12048006800F00700A842D1
:101970000ED91D48006820F0070028431A49086066
:101980000846006800F00700A84201D0012079E76E
:10199000207800F00400042807D11448406820F49F
:1019A000E060E168084311494860207800F00800D1
:1019B000082808D10D48406820F46050216940EAA9
:1019C000C1000A49486000F05FF808494968C1F35E
:1019D0000311074A515CC840064908600020FFF720
:1019E0006FFA00204EE70000002002400010024085
:1019F000D0720008080100200F2202600D4A5268D0
:101A000002F0030242600B4A526802F0F002826068
:101A1000084A526802F4E062C260064A526802F460
:101A20006052D2080261044A126802F007020A609A
:101A3000704700000010024000200240014800688A
:101A4000704700000801002000B5FFF7F7FF0449C8
:101A50004968C1F30221034A515CC84000BD00003F
:101A600000100240E072000800B5FFF7E7FF0449EC
:101A70004968C1F3C221034A515CC84000BD00005F
:101A800000100240E0720008F0B585B00FF26C0C57
:101A90009CE8E01001A8A0E8E0101CA52D680095C6
:101AA00000210022002300240020194D696801F064
:101AB0000C05F5B1042D02D0082D19D101E015480F
:101AC00019E001ADC1F38346AC5D01F4803555B139
:101AD0000F4D6D68C5F340451DF805200D4D65435C
:101AE000B5FBF2F302E00C4D04FB05F3184602E0EF
:101AF00000BF084800BF00BF05B0F0BD02030405E9
:101B0000060708090A0B0C0D0E0F10100102000049
:101B10000010024000127A0000093D00F8B50446AA
:101B20000025207800F00100002878D0F8484068AF
:101B300000F00C0004280CD0F548406800F00C00C0
:101B4000082811D1F248406800F48030B0F5803F99
:101B50000AD1EF48006800F4003000285FD06068C8
:101B600000285CD10120F8BD00BF6068B0F5803F5F
:101B700006D1E748006840F48030E549086028E075
:101B8000606858B9E248006820F48030E049086095
:101B90000846006820F4802008601AE06068B0F50C
:101BA000A02F0BD1DA48006840F48020D8490860A3
:101BB0000846006840F4803008600AE0D4480068B5
:101BC00020F48030D24908600846006820F4802064
:101BD000086000BF606888B1FFF74CF9054606E071
:101BE000FFF748F9401B642801D90320BBE7C84828
:101BF000006800F400300028F2D010E0FFF73AF956
:101C0000054606E0FFF736F9401B642801D903209A
:101C1000A9E7BF48006800F400300028F2D120781E
:101C200000F00200022857D1B948406800F00C00CB
:101C300050B1B748406800F00C00082818D1B448EB
:101C4000406800F4803098B9B148006800F00200A4
:101C500020B12069012801D0012084E7AC48006848
:101C600020F0F800616940EAC100A949086033E04A
:101C70002069E8B10120A7490860FFF7FBF8054695
:101C800006E0FFF7F7F8401B022801D903206AE7B6
:101C90009F48006800F002000028F2D09C480068CD
:101CA00020F0F800616940EAC1009949086013E03A
:101CB000002098490860FFF7DDF8054606E0FFF7C9
:101CC000D9F8401B022801D903204CE7904800684E
:101CD00000F002000028F2D1207800F00800082867
:101CE0002DD1A069B8B101208B490860FFF7C2F877
:101CF000054606E0FFF7BEF8401B022801D9032085
:101D000031E78348406A00F002000028F2D0012049
:101D100000F0C2FF13E000207F490860FFF7AAF837
:101D2000054606E0FFF7A6F8401B022801D903206C
:101D300019E77748406A00F002000028F2D12078C5
:101D400000F00400042873D100267148C06900F037
:101D5000805070B900BF6E48C06940F080506C4937
:101D6000C8610846C06900F08050009000BF00BF05
:101D700001266A48006800F48070B0B967480068BE
:101D800040F4807065490860FFF774F8054606E086
:101D9000FFF770F8401B642801D90320E3E65F4891
:101DA000006800F480700028F2D000BFE0680128CD
:101DB00006D15748006A40F001005549086227E003
:101DC000E06858B95248006A20F0010050490862A2
:101DD0000846006A20F00400086219E0E06805285F
:101DE0000BD14B48006A40F004004949086208469C
:101DF000006A40F0010008620AE04548006A20F0ED
:101E00000100434908620846006A20F004000862A5
:101E100000BFE068A0B1FFF72DF8054609E0FFF725
:101E200029F8401B41F28831884202D903209AE602
:101E300022E03748006A00F002000028EFD012E0EC
:101E4000FFF718F8054608E0FFF714F8401B41F2C9
:101E50008831884201D9032085E62D48006A00F0C8
:101E600002000028F0D1012E05D12948C06920F0D8
:101E700080502749C86100BFE069C8B32448406862
:101E800000F00C00082860D0E069022848D100204A
:101E900020490866FEF7EEFF054606E0FEF7EAFF7A
:101EA000401B022801D903205DE61948006800F0B4
:101EB00000700028F2D1206AB0F5803F07D11448A5
:101EC000406820F40030A168084311494860D4E913
:101ED000080108430E49496821F4741108430C496C
:101EE000486001200B490866FEF7C4FF054607E07D
:101EF0002DE0FEF7BFFF401B022801D9032032E688
:101F00000348006800F000700028F2D01FE00000D5
:101F10000010024000004242800442420070004033
:101F200000200C490866FEF7A5FF054606E0FEF70F
:101F3000A1FF401B022801D9032014E606480068CF
:101F400000F000700028F2D101E001200BE6002033
:101F500009E600000000424200100240042808D1B7
:101F60004FF0E021096941F004014FF0E0221161D6
:101F700007E04FF0E021096921F004014FF0E02271
:101F80001161704770B504462546681EB0F1807F28
:101F900001D301200FE0681E4FF0E02148610F21BE
:101FA0004FF0FF3000F042FC00204FF0E02188614C
:101FB00007200861002070BD7047704710B50446C7
:101FC0000CB9012010BD94F83D0028B9002084F818
:101FD0003C00204600F00CF8022084F83D00211D52
:101FE000206800F09FFF012084F83D000020E9E711
:101FF000704701460868C06840F001000A68D06078
:102000000868006840F001000A681060002070470E
:10201000704710B5044620680069C0F34000D8B18D
:102020002068C068C0F34000B0B16FF002002168C2
:102030000861012020772068806900F0030018B152
:102040002046FFF7E5FF05E0204600F0ADF820460A
:1020500000F0ABF80020207720680069C0F3800012
:10206000D8B12068C068C0F38000B0B16FF0040040
:1020700021680861022020772068806900F44070A0
:1020800018B12046FFF7C4FF05E0204600F08CF8A9
:10209000204600F08AF80020207720680069C0F30D
:1020A000C000D8B12068C068C0F3C000B0B16FF004
:1020B000080021680861042020772068C06900F0CA
:1020C000030018B12046FFF7A3FF05E0204600F00B
:1020D0006BF8204600F069F800202077206800693E
:1020E000C0F30010D8B12068C068C0F30010B0B1D0
:1020F0006FF0100021680861082020772068C0690F
:1021000000F4407018B12046FFF782FF05E020463A
:1021100000F04AF8204600F048F8002020772068B8
:10212000006900F0010058B12068C06800F00100AB
:1021300030B16FF0010021680861204600F036F8E8
:1021400020680069C0F3C01058B12068C068C0F3AF
:10215000C01030B16FF08000216808612046FFF7A1
:102160002BFF20680069C0F3801058B12068C06858
:10217000C0F3801030B16FF0400021680861204644
:1021800000F020F820680069C0F3401058B12068C2
:10219000C068C0F3401030B16FF0200021680861C2
:1021A0002046FFF70AFF10BD7047704710B5044680
:1021B00003492068884201D1FEF762FE10BD00008D
:1021C00000080040704770B504460025206840694B
:1021D000C0F3C01594F8390021280ED16DB12068E4
:1021E000406920F0800021684861206B10B1206BAD
:1021F000FEF7C7FA204600F04BFF20684069C0F3A5
:10220000801594F83A0022280ED16DB120684069FB
:1022100020F0400021684861606B10B1606BFEF7F0
:10222000B0FA204600F014FF002070BD7047000097
:102230002DE9F0470446206805682068C6682068D4
:1022400047694FF00008C14605F00F08B8F1000FCC
:102250000AD105F0200038B106F0200020B1204658
:1022600000F020FFBDE8F087B8F1000F6DD007F057
:10227000010018B906F49070002866D005F001003E
:1022800030B106F4807018B1E06B40F00100E063FB
:1022900005F0040030B107F0010018B1E06B40F028
:1022A0000200E06305F0020030B107F0010018B150
:1022B000E06B40F00400E06305F0080030B107F087
:1022C000010018B1E06B40F00800E063E06B68B318
:1022D00005F0200028B106F0200010B1204600F0E3
:1022E000E1FE20684069C0F38019E06B00F008004F
:1022F00010B9B9F1000F22D0204600F0A9FE2068E5
:10230000406900F04000B0B12068406920F0400012
:1023100021684861606B50B11748616B4863606B1E
:10232000FEF74CFA10B1606B416B88470CE0204619
:10233000FFF77CFF08E02046FFF778FF04E0204627
:10234000FFF774FF0020E0638CE705F0800030B1F8
:1023500006F0800018B1204600F0DCFF82E705F0AF
:10236000400030B106F0400018B1204600F080FE79
:1023700078E700BF76E70000992F000810B5044603
:102380000CB9012010BDA06900B100E000BF94F8B5
:10239000390028B9002084F83800204600F028F8D9
:1023A000242084F839002068C06820F40050216897
:1023B000C860204600F0CAFE2068006920F4904002
:1023C000216808612068406920F02A00216848617E
:1023D0002068C06840F400502168C8600020E063B5
:1023E000202084F8390084F83A000020CAE7000071
:1023F00010B586B0044625492068884244D100BF04
:102400002348806940F480402149886108468069FA
:1024100000F48040019000BF00BF481502900220E8
:1024200003900320059002A91A48FEF787FB4FF49A
:102430008060029000200390049002A91548FEF7E6
:102440007DFB1548154908600020486000211348AD
:1024500081608021C1600021016141618161C161B0
:10246000FEF7D2FA18B179210DA002F0FDFD00BFF0
:102470000A486063446200BF002205212520FEF760
:10248000C4FD2520FEF7B4FD06B010BD00380140A4
:102490000010024000080140580002409402002051
:1024A0002E2E2F5372632F75736172742E6300008A
:1024B00077B581B00446154694F83A00202850D1EB
:1024C000029800B115B9012004B070BD00BF94F8A6
:1024D0003800012801D10220F6E7012084F83800F5
:1024E00000BF0298A062A5850020E063222084F846
:1024F0003A001D48616B88621C48616BC8621C48C9
:10250000616B08630020616B486302AE3268236828
:10251000191D2B46606BFEF7AFFA00BF002000903C
:1025200020680068009020684068009000BF00BFED
:1025300000BF002084F8380000BF2068C06840F465
:1025400080702168C8602068406940F001002168FF
:1025500048612068406940F04000216848610020DF
:10256000B2E70220B0E70000FD2F0008433000086A
:10257000AD2F0008704770472DE9F84304460D461B
:1025800016461F464FF0000994F8390020285CD108
:1025900005B116B90120BDE8F88300BF94F83800F2
:1025A000012801D10220F6E7012084F8380000BF9D
:1025B0000020E063212084F83900FEF75BFC8146AF
:1025C000A684E6842BE0E08C401EE084A068B0F591
:1025D000805F16D14B46002280212046009700F0F4
:1025E000CDFE08B10320D6E7A846B8F80000C0F336
:1025F000080021684860206908B9AD1C0FE06D1C17
:102600000DE04B46002280212046009700F0B6FEE8
:1026100008B10320BFE715F8010B21684860E08C82
:102620000028D0D14B46002240212046009700F0E0
:10263000A5FE08B10320AEE7202084F8390000BFD2
:10264000002084F8380000BFA5E70220A3E7704708
:1026500000BFFEE708B500BF0A48406940F001002E
:10266000084948610846406900F00100009000BF39
:1026700000BF002205210F20FEF7C7FC0F20FEF748
:10268000B7FC08BD0010024000B58BB014220F4902
:1026900006A8FDF7A3FD002106A802F035FF0C49AE
:1026A000086014220949143101A8FDF797FD0021A3
:1026B00001A802F029FF0749086002F033FD02F08B
:1026C0001DFD02F0EBFC0BB000BD000040720008E5
:1026D000080000200C00002000B585B000BF2B488A
:1026E000806940F02000294988610846806900F02F
:1026F0002000009000BF00BF00BF0846806940F086
:10270000040088610846806900F00400009000BF62
:1027100000BF00BF0846806940F008008861084695
:10272000806900F00800009000BF00BF4FF4005027
:102730000190012002900320049001A91448FEF7A3
:10274000FDF900224FF400511148FEF78DFB4FF4C4
:10275000804001900120029003900320049001A981
:102760000B48FEF7EBF9012291030948FEF77CFBC9
:102770004FF48050019000200290039003200490B9
:1027800001A90348FEF7DAF905B000BD00100240C8
:10279000000C014010B50C480C4908604FF4E130C2
:1027A0004860002109488160C16001610C214161DC
:1027B00000218161C161FFF7E1FD18B14E2104A044
:1027C00002F052FC10BD000000380140540200200D
:1027D0002E2E2F5372632F75736172742E63000057
:1027E00010B500220749084801F0D3F90749064807
:1027F00001F0C4FC0649044800F0C1FE024801F0A3
:1028000085FD10BD14000020D802002070010020BA
:10281000B800002000BFFEE77047000002480068D3
:10282000C0F30220704700000CED00E010B5002856
:1028300007DA0A07140E054A00F00F031B1FD454D1
:1028400003E00A07130E024A135410BD18ED00E00E
:1028500000E400E02DE9FC410546002400270026A5
:102860000020019000900CE2BDF8040000F00F067B
:10287000002E7DD1BDF8040000F0100088BB286850
:10288000008848F60F7108402968088005F128047F
:102890002868B0F85010207801EBC000801C29682F
:1028A00001F5806131F81000C0F30900E061E169D1
:1028B00060690844606100212846FEF719FC95F81C
:1028C00024000028CFD0A0690028CCD195F824009E
:1028D00040F080002968A1F84C00002085F8240011
:1028E000CFE1FFE705F50A74286800880090BDF87D
:1028F000000000F4006018B32868B0F85010207889
:1029000001EBC000801D296801F5806131F81000DD
:10291000C0F30900E061A18B8BB2A28805F22C41C3
:10292000286802F060FB28680088C0F30E0048F6B3
:102930008F710840296808802846FEF7B9FEA0E19B
:10294000BDF8000000F4004000288CD02868008802
:10295000C0F30E0048F68F71084029680880286887
:10296000B0F85010207801EBC000801D296800E00D
:1029700055E001F5806131F81000C0F30900E06115
:10298000E06960B1B4F81CC01FFA8CF3A2886169D9
:10299000286802F028FBE169606908446061002151
:1029A0002846FEF7B3FB2A6802F580622868B0F873
:1029B0005000801D02EB400122693E2A10D9226995
:1029C000C2F34F10227C02F01F020AB9421E90B2DD
:1029D0004FF6FF7202EA802242F400420A600DE0E4
:1029E0002269C2F34F00227C02F001020AB1421CAC
:1029F00090B24FF6FF7202EA80220A6029680988C5
:102A00004BF68F7201EA020080F4805080F400508F
:102A100040F4004141F080012A68118031E17100E9
:102A2000286830F811000090BDF8000000F4004064
:102A300000287CD07100286830F81100C0F30E0027
:102A400048F68F7108407200296821F8120005F5D8
:102A50000A7000EB4614A07AA8B92868B0F85010A4
:102A6000207801EBC000801D296801F5806131F8F4
:102A70001000C0F30907EFB3A28861693B462868DC
:102A800002F0B1FA44E021784900286830F81100DA
:102A900000F48040A8B12868B0F85010207801EB0D
:102AA000C000801C296801F5806131F81000C0F376
:102AB0000907DFB1E28861693B46286802F093FAB2
:102AC00014E02868B0F85010207801EBC000801D99
:102AD000296801F5806131F81000C0F309072FB1B2
:102AE000228961693B46286802F07DFA2178490015
:102AF000286800E00CE030F8110048F68F710840BB
:102B000048F2C001084322785200296821F81200D7
:102B1000E0693844E061606938446061A06910B1DF
:102B20002069B84204D921782846FEF7EFFA05E07B
:102B300021782846D4E90523FEF794FBBDF8000070
:102B400000F0800000287CD005F1280000EB46143E
:102B50007100286830F8110048F60F7108407200C3
:102B6000296821F81200A07AD0B92868B0F850106E
:102B7000207801EBC000801C296801F5806131F8E4
:102B80001000C0F30900E061E069E8B3B4F81CC0CC
:102B90001FFA8CF3A2886169286802F042FA4EE0BD
:102BA00021784900286830F8110000F04000D0B1C9
:102BB0002868B0F85010207801EBC000801C29680C
:102BC00001F5806131F81000C0F30900E061E069AF
:102BD00028B3B4F81CC01FFA8CF3E2886169286836
:102BE00002F01FFA1BE02868B0F85010207801EBC3
:102BF000C000801D296801F5806131F81000C0F324
:102C00000900E061E06900E019E040B1B4F81CC0DF
:102C10001FFA8CF322896169286802F002FA217890
:102C20004900286830F8110048F68F7108404CF2CE
:102C30008001084322785200296821F81200286890
:102C400000E01EE0B0F85010207801EBC000801CBE
:102C5000296801F5806131F81000C0F30900E061D6
:102C6000E169606908446061A06920B9217828465B
:102C7000FEF73EFA05E021782846D4E90523FEF761
:102C80004FFB2868B0F84400019000F40040002891
:102C90007FF4EAADBDE8FC8108B508490968C908B8
:102CA0004FF47A72B1FBF2F14143009100BF00BFD3
:102CB00000994A1E00920029F9D108BD08010020A0
:102CC00070B504460025802C05D800210448006812
:102CD00002F078FA05460DB9002070BD2846FCE7E1
:102CE000F000002070B5044621460548006802F057
:102CF00009FB05460DB9012070BD0020FCE700006E
:102D0000F000002000BF11480068C06840F01000CB
:102D10000E490968C8600E48B0F840006FF30E0015
:102D200040300B49A1F840000846B0F8400020F4BC
:102D30000040A1F8400040220448FFF7B9FB00BF63
:102D40004FF0FF3002F02DFAFAE7000054020020A5
:102D50000802002000BF2948007820B1012816D0C1
:102D6000022842D125E04FF480512548FEF774F83F
:102D700008B9012000E0002018B101201F490870A7
:102D800004E0FDF7B1FC01201C49087031E04FF46C
:102D900080511B48FEF760F808B9012000E00020D0
:102DA00030B9FEF767F81749086002201349087028
:102DB0001FE04FF480511248FEF74EF808B9012089
:102DC00000E0002018B101200C4908700CE0FEF76B
:102DD00051F80C490968401A0B49884204D9FDF79B
:102DE00083FC01200549087003E0012003490870B5
:102DF00000BF00BF642002F0D4F9ACE7000000205F
:102E0000000C014004000020C0D4010010B502F005
:102E100073FB10BD10B594B001200A9000040B9014
:102E200000200C9001200E9002201190C1031291FD
:102E30004FF4E01113910AA8FEF770FE18B1A42117
:102E40001AA002F011F90F20059002200690002030
:102E500007904FF48060089000200990022105A897
:102E6000FEF7F8FC18B1B22110A002F0FDF8102016
:102E700001900020049001A8FEF754FC18B1B9217C
:102E80000AA002F0F1F8FEF7D9FD4FF47A71B0FB19
:102E9000F1F42046FFF776F80420FFF75FF80022F0
:102EA0000F21501EFEF7B1F814B010BD2E2E2F5377
:102EB00072632F6D61696E2E630000001148006817
:102EC00040F001000F490860084640680E4908407C
:102ED0000C494860084600680C49084009490860E8
:102EE0000846006820F4802008600846406820F406
:102EF000FE0048604FF41F008860C8030449086062
:102F000070470000001002400000FFF8FFFFF6FECF
:102F100008ED00E010B50248FFF77BF810BD000097
:102F2000940B002000220268184B984208D0B0F1A0
:102F3000804F05D0164B984202D0164B984203D1D1
:102F400022F070024B681A43104B984208D0B0F13F
:102F5000804F05D00E4B984202D00E4B984203D1C1
:102F600022F44072CB681A4322F080024B691A4364
:102F700002608B68C3620B688362044B984201D184
:102F80000B6903630123436170470000002C01407B
:102F9000000400400008004070B505466C6A00203F
:102FA000E085E0842046FFF741F970BD70B5064624
:102FB0000025746A20684069C0F3C01594F8390090
:102FC000212805D125B10020E084204600F060F8DA
:102FD00020684069C0F3801594F83A00222805D192
:102FE00025B10020E085204600F032F8E06B40F08B
:102FF0001000E0632046FFF719F970BD70B5054673
:103000006C6A2868006800F02000B0B90020E085F4
:103010002068C06820F480702168C860206840691A
:1030200020F00100216848612068406920F04000DC
:1030300021684861202084F83A002046FFF79AFA78
:1030400070BD70B50446656A2846FFF794FA70BDF6
:103050000168C96821F490710268D160016849690A
:1030600021F0010102685161202180F83A10704777
:1030700010B504462068C06820F040002168C86090
:10308000202084F839002046FFF7E1FA002010BD27
:103090000168C96821F0C0010268D160202180F870
:1030A0003910704770B5044694F83A0022284AD186
:1030B000A068B0F5805F13D1A56A206940B9206887
:1030C0004068C0F308002880A06A801CA06219E054
:1030D00020684068C0B22880A06A401CA06211E04D
:1030E000206938B920684068C1B2A26A501CA06249
:1030F000117007E02068406800F07F01A26A501C50
:10310000A0621170E08D401E80B2E085C8B92068D1
:10311000C06820F020002168C8602068C06820F4E2
:1031200080702168C8602068406920F00100216833
:103130004861202084F83A002046FFF71BFA00205F
:1031400070BD0020FCE70220FAE700002DE9F04105
:10315000044600252068006920F44050E1680843D7
:10316000216808612169A068084361690843054333
:103170002068C06841F20C61884328432168C86018
:103180002068406920F44070A169084321684861C3
:103190005F49206888425CD1FEF766FC00EBC00105
:1031A00001EB001061688900B0FBF1F6FEF75CFCF2
:1031B00000EBC00101EB001061688900B0FBF1F089
:1031C0006421B0FBF1F000EBC00101EB0010A6EBB5
:1031D0008000322101EB00106421B0FBF1F000F01F
:1031E000F006FEF741FC00EBC00101EB0010616846
:1031F0008900B0FBF1F06421B0FBF1F006EB0016A2
:10320000FEF732FC00EBC00101EB001061688900A1
:10321000B0FBF1F7FEF728FC00EBC00101EB00105A
:1032200061688900B0FBF1F06421B0FBF1F000EBC4
:10323000C00101EB0010A7EB8000322101EB001070
:103240006421B0FBF1F000F00F0030442168886089
:103250005BE0FEF7F9FB00EBC00101EB00106168D9
:103260008900B0FBF1F6FEF7EFFB00EBC00101EBCC
:10327000001061688900B0FBF1F06421B0FBF1F04F
:1032800000EBC00101EB0010A6EB8000322101EB46
:1032900000106421B0FBF1F000F0F006FEF7D4FB63
:1032A00000EBC00101EB001061688900B0FBF1F098
:1032B0006421B0FBF1F006EB0016FEF7C5FB00EB56
:1032C000C00101EB001061688900B0FBF1F7FEF767
:1032D000BBFB00EBC00101EB001061688900B0FB93
:1032E000F1F06421B0FBF1F000EBC00101EB001044
:1032F000A7EB8000322101EB00106421B0FBF1F05C
:1033000000F00F00304421688860BDE8F0810000C3
:1033100000380140014691F8390021282CD18868F5
:10332000B0F5805F0FD10A6A1088C0F308000B68FF
:103330005860086918B9086A801C086209E0086AC0
:10334000401C086205E00B6A581C086218780B687C
:103350005860C88C401E80B2C88458B90868C068DC
:1033600020F080000B68D8600868C06840F040001A
:103370000B68D860002070470220FCE72DE9F0417F
:1033800004460D4617469846069E21E0701CF8B18B
:103390002EB1FDF76FFDA0EB0800B04218D92068F0
:1033A000C06820F4D0702168C8602068406920F0AF
:1033B000010021684861202084F8390084F83A002F
:1033C00000BF002084F8380000BF0320BDE8F08172
:1033D000206800682840A84201D1012000E00020B8
:1033E000B842D3D00020F1E738B504462068006821
:1033F000C0F3001070B3606B00684068C0F140001B
:10340000152827D300BF0020009020680068009096
:1034100020684068009000BF00BF2046FEF7D3FE42
:10342000606B00684068C0F140000B49B1F8401083
:1034300060F30E010848A0F84010B0F8400020F4F6
:10344000004000F500400449A1F840004022204619
:10345000FFF72EF838BD00000802002010B5034821
:10346000FFF7C2FF0148FEF7E3FE10BD5402002043
:1034700002460020D2F8183283F83000704770B549
:1034800004460E46D4F81852D4F81C0201692846A6
:10349000884720232A460321204600F018FD0020FB
:1034A00070BD70B504460D468221204600F0ACFB8D
:1034B0000321204600F0A8FBD4F8180250B1D4F83C
:1034C0001C12C8688047D4F8180201F02FF80020B9
:1034D000C4F81802002070BD70B50446D4F8185224
:1034E000E86A012806D1D4F81C02016928468847F9
:1034F0000020E862002070BD01464220088001489B
:1035000070470000AC01002001460A2008800148F5
:1035100070470000FC0100202DE9F04104460F46F1
:103520000026202303228221204600F09FFC102346
:1035300003228121204600F099FC2023032211461A
:10354000204600F093FC342000F0F2FFC4F818028B
:10355000D4F8180208B901260EE0D4F81852002059
:1035600085F83000D4F81C128868804720232A464A
:103570000321204600F0ABFC3046BDE8F081024656
:10358000022011B1C2F81C12002070472DE9F04151
:1035900004460D4617469846D4F8186294F8FC0184
:1035A000032815D196F8300090B9012086F8300034
:1035B00035B943463A468121204600F09AFD07E09E
:1035C000012D05D143463A468221204600F091FD67
:1035D0000020BDE8F08100002DE9F04106460C46D0
:1035E0000027B846D6F81852207800F0600080B363
:1035F00020287AD16078801E0A2823D2DFE800F0E4
:10360000130822222222221A0F05A078286221E024
:10361000012205F12001304600F0DEF81AE0608852
:103620000012686216E0012205F12401304600F024
:10363000D3F80FE00120E862A2792946304600F075
:10364000AAF807E02146304600F099F80220BDE8CC
:10365000F08101E000BF48E06078062804D00A2825
:1036600038D00B2840D13CE060882221B1EB202FDC
:103670001CD1A08858B9E0884A2801DD4A2000E022
:10368000E0880746D6F81C02D0F800801CE0A0882D
:10369000012819D1E088222801DD222000E0E088FD
:1036A0000746D6F81C02D0F804800DE0608821217E
:1036B000B1EB202F08D1DFF83880E088092801DD40
:1036C000092000E0E08807463A464146304600F0CF
:1036D00083F809E0012205F12801304600F07CF86A
:1036E00002E0A078A86200BF00BF00BF0020AEE7E4
:1036F000F001002070B504460D46D4F814022946A6
:10370000426820469047002070BD70B504460D46C3
:1037100094F8FC01022802D0032811D100E000BF78
:10372000688801280BD10020C4F80402D4F81402E0
:103730002946826820469047204600F05EF804E063
:103740002946204600F01BF800BF00BF70BD70B5D1
:1037500006460C4615462B4622460021304600F010
:10376000B6FB002070BD70B506460C4615462B46CC
:1037700022460021304600F0BCFC002070BD70B530
:1037800004460D468021204600F069FC00212046B9
:1037900000F065FC70BD70B504460E46154603206A
:1037A000C4F8F4014FF484700551001D05512B46F7
:1037B00032460021204600F08AFB002070BD10B583
:1037C00004460520C4F8F40100231A461946204691
:1037D00000F07DFB002010BD70B504460E46154676
:1037E0000220C4F8F401A561E5612B4632460021B0
:1037F000204600F07EFC002070BD10B50446042079
:10380000C4F8F40100231A461946204600F071FC62
:10381000002010BD70B505460C462DB9224606495C
:1038200006A000F08DF904E02246034903A000F051
:1038300087F9014870BD0000940900204375737436
:103840006F6D2048494420436F6E66696700000031
:103850000246122008800148704700003000002016
:1038600070B505460C462DB92246064906A000F063
:1038700067F904E02246034903A000F061F901481A
:1038800070BD000094090020437573746F6D20486B
:10389000494420496E7465726661636500000000EA
:1038A00002460420088001487047000044000020C0
:1038B00070B505460C462246024903A000F040F9C7
:1038C000004870BD94090020536959692E496E74EF
:1038D000656C6C69676563650000000070B505463E
:1038E0000C462DB92246064906A000F029F904E04D
:1038F0002246034903A000F023F9014870BD0000EF
:10390000940900204164617074657256312E300054
:1039100070B505460C462DB92246064906A000F0B2
:103920000FF904E02246034903A000F009F9014819
:1039300070BD00009409002030303030303030301D
:10394000303031410000000070B504460D46E88873
:10395000012804D029462046FFF711FF1BE094F808
:10396000FC01022802D003280FD108E00020A0604B
:10397000012204F108012046FFF72EFF0AE0012290
:10398000211D2046FFF728FF04E029462046FFF7C7
:10399000F6FE00BF00BF70BDF8B504460E46708845
:1039A0000012082872D2DFE800F082040C20828224
:1039B0006372207CD4F810120A6869469047054665
:1039C0007AE0207C40B9D4F81402816A68468847BE
:1039D00005460221697007E0D4F81402C16A6846FE
:1039E000884705460221697066E0B078062834D21F
:1039F000DFE800F0030B131B232B207CD4F81012FC
:103A00004A6869469047054630E0207CD4F8101299
:103A10008A6869469047054628E0207CD4F8101251
:103A2000CA6869469047054620E0207CD4F8101209
:103A30000A6969469047054618E0207CD4F81012C0
:103A40004A6969469047054610E0207CD4F8101278
:103A50008A6969469047054608E0B178D4F81402AF
:103A60006A46836B20469847054600BF00BF23E0A7
:103A7000207C30B9D4F81402416B6846884705466B
:103A80001AE031462046FFF77AFEF8BD0FE0207CB1
:103A900040B9D4F81402016B6846884705460721EF
:103AA000697009E031462046FFF769FEEDE73146CF
:103AB0002046FFF764FEE8E700BFBDF8000088B1CC
:103AC000F08878B1F088BDF80010884202DDBDF8BA
:103AD000000000E0F0880090BDF800202946204654
:103AE000FFF77AFE00BFD0E70146002002E0421C4B
:103AF000D0B2491C0A78002AF9D1704770B5044643
:103B00000D4694F8FC01022802D0032811D100E0F0
:103B100000BF0120E060D4F8040218B1E06840F072
:103B20000200E060022204F10C012046FFF754FE7F
:103B300004E029462046FFF722FE00BF00BF70BD0B
:103B40002DE9F04104460D4617460026FCB12046FB
:103B5000FFF7CAFF022101EB400038803A78304677
:103B6000711CCEB22A5403223046711CCEB22A54A4
:103B70000AE014F8012B3046711CCEB22A54002200
:103B80003046711CCEB22A5420780028F1D1BDE80D
:103B9000F08170B504460D4616460CB9022070BD82
:103BA000D4F8140210B10020C4F814020DB1C4F806
:103BB0001052012084F8FC012670204600F0F6F82F
:103BC0000020ECE72DE9F04104460D4600260027D1
:103BD0002946D4F82002FDF7D9FA064636B1012E5F
:103BE00006D0022E06D0032E08D105E0002707E0FC
:103BF000022705E0012703E0022701E0022700BFBA
:103C000000BF3846BDE8F0812DE9F04104460D467D
:103C1000002600272946D4F82002FDF785FA06463B
:103C200036B1012E06D0022E06D0032E08D105E0B3
:103C3000002707E0022705E0012703E0022701E053
:103C4000022700BF00BF3846BDE8F0812DE9F041F2
:103C500004460E461746002E54D104F11405D4F83C
:103C6000F401022843D1D5E90201884210D9D5E9EF
:103C70000201401AA860288982B239462046FFF71F
:103C800072FD00231A461946204600F020F92EE066
:103C9000E9686868B0FBF1F201FB1200B8B9E968A5
:103CA0006868884213D36868D4F8F81188420ED245
:103CB000002211462046FFF756FD0020C4F8F80107
:103CC00000231A461946204600F001F90FE0D4F807
:103CD0001402C06840B194F8FC01032804D1D4F860
:103CE0001402C168204688472046FFF768FD94F813
:103CF0000002012814D1204600F048FA002084F880
:103D000000020DE0D4F81402406948B194F8FC01B7
:103D1000032805D1D4F81402314642692046904761
:103D20000020BDE8F0812DE9F04105460E4617461A
:103D30005EBB05F58274D5F8F401032833D1D4E9CC
:103D40000201884210D9D4E90201401AA060D4E9E6
:103D50000201884201D2A06800E0E06882B23946E0
:103D60002846FFF7F4FC1EE0D5F81402006940B1C4
:103D700095F8FC01032804D1D5F8140201692846FE
:103D800088472846FFF739FD0DE0D5F81402806911
:103D900048B195F8FC01032805D1D5F81402314645
:103DA0008269284690470020BDE8F08110B504469E
:103DB0001B48C0F85C44C4F820021A48184908603F
:103DC00008204860022116488160C160002181619D
:103DD000C1610162FDF77EFB20B14FF4977112A023
:103DE00001F042F9182300221146D4F82002FDF711
:103DF0005FF9582300228021D4F82002FDF758F9FA
:103E0000982300228221D4F82002FDF751F9D8230B
:103E100000220321D4F82002FDF74AF9002010BD4A
:103E2000FC040020005C00402E2E2F5372632F757F
:103E30007362645F636F6E662E63000010B50246A6
:103E4000D2F8203201F08000802807D101F07F04F1
:103E500003F1280000EB4410807810BD01F07F04CE
:103E600003F50A7000EB44108078F6E72DE9F0477F
:103E700004460F4615461E464FF00008C1462B4625
:103E800032463946D4F82002FDF7B1F98046B8F140
:103E9000000F09D0B8F1010F09D0B8F1020F09D015
:103EA000B8F1030F0CD108E04FF000090BE04FF020
:103EB000020908E04FF0010905E04FF0020902E0B5
:103EC0004FF0020900BF00BF4846BDE8F0872DE96A
:103ED000F04704460D4616461F464FF00008C146FF
:103EE0003B4632462946D4F82002FDF7BBF980460E
:103EF000B8F1000F09D0B8F1010F09D0B8F1020FE5
:103F000009D0B8F1030F0CD108E04FF000090BE025
:103F10004FF0020908E04FF0010905E04FF00209F7
:103F200002E04FF0020900BF00BF4846BDE8F0873D
:103F300010B504464023002211462046FFF796FFA5
:103F400040214FF4887001514023002280212046F7
:103F5000FFF78CFF40212162012084F8FC01D4F896
:103F6000180228B12179D4F81402426820469047FB
:103F7000002010BD014691F8FD0181F8FC010020F0
:103F8000704710B5044694F8FC01032808D1D4F812
:103F90001402C06920B1D4F81402C16920468847D0
:103FA000002010BD02461174002070472DE9F04139
:103FB00004460D46002600272946D4F82002FDF7C6
:103FC0005CFB064636B1012E06D0022E06D0032E2B
:103FD00008D105E0002707E0022705E0012703E0FC
:103FE000022701E0022700BF00BF3846BDE8F0818C
:103FF00070B504460D46294604F5027000F0AAF893
:104000000120C4F8F40140F20E20005BC4F8F8016E
:1040100094F8080200F01F0020B1012808D00228FF
:1040200012D10BE004F50271204600F076F913E09E
:1040300004F50271204600F054FA0DE004F5027117
:10404000204600F0A3F907E094F8080200F0800190
:10405000204600F004F800BF00BF002070BD2DE92D
:10406000F04104460D46002600272946D4F82002D8
:10407000FDF71DF9064636B1012E06D0022E06D0F8
:10408000032E08D105E0002707E0022705E00127FD
:1040900003E0022701E0022700BF00BF3846BDE869
:1040A000F08170B5044600250026D4F82002FDF703
:1040B00008FB054635B1012D06D0022D06D0032D93
:1040C00008D105E0002607E0022605E0012603E00E
:1040D000022601E0022600BF00BF304670BD014647
:1040E00091F8FC0181F8FD01042081F8FC01002019
:1040F00070472DE9F04704460D4616461F464FF01F
:104100000008C1463B4632462946D4F82002FDF756
:1041100007F98046B8F1000F09D0B8F1010F09D0B6
:10412000B8F1020F09D0B8F1030F0CD108E04FF03D
:1041300000090BE04FF0020908E04FF0010905E02B
:104140004FF0020902E04FF0020900BF00BF4846ED
:10415000BDE8F0870A7802704A7842708B78CA7896
:1041600003EB022242800B794A7903EB0222828020
:104170008B79CA7903EB0222C28070470246002085
:1041800011B1C2F8141200E002207047014600206D
:10419000704770B504460D46A888F8B9E888E8B9B4
:1041A000A87800F07F0694F8FC01032804D1294682
:1041B0002046FFF7E4FA15E084F8FE613146204618
:1041C000FFF7F4FE2046FFF718FB1EB1022084F82B
:1041D000FC0107E0012084F8FC0103E029462046A9
:1041E000FFF7CDFA70BD70B504460D460226D4F82F
:1041F000140238B1D4F814022946026820469047C8
:1042000000B90026304670BD70B504460D46A8784A
:104210003449087008460078012804DD2946204604
:10422000FFF7ADFA5BE094F8FC01022802D0032806
:104230004FD11CE02B480078A8B12A480078606074
:10424000032084F8FC01274801782046FFF7CBFFC4
:10425000022804D129462046FFF791FA70BD204676
:10426000FFF7CBFA02E02046FFF7C7FA36E01D4819
:10427000007870B9022084F8FC011A480078606068
:10428000184801782046FFF735FA2046FFF7B5FABF
:104290001EE0144909786068884216D021792046CA
:1042A000FFF728FA0F48007860600E480178204632
:1042B000FFF799FF022804D129462046FFF75FFA4D
:1042C000CCE72046FFF799FA02E02046FFF795FA7F
:1042D00004E029462046FFF752FA00BF00BF00BFA6
:1042E000BCE700006C01002070B504460D466888EC
:1042F00001280AD1C4F80402D4F8140229468268BD
:10430000204690472046FFF778FA70BD10B5044666
:104310002046FFF7C6FE002010BD70B505460C46CE
:10432000002660780A2829D2DFE800F01923281E29
:10433000280A0528140F21462846FFF72DFB22E006
:1043400021462846FFF725FF1DE021462846FFF7B6
:104350005BFF18E021462846FFF7F6FA13E02146F6
:104360002846FFF7CBFB0EE021462846FFF7BCFFAF
:1043700009E021462846FFF7C8F904E0214628460F
:10438000FFF7FDF900BF00BF304670BD2DE9F041D9
:1043900005460E464FF000083479307800F0600092
:1043A000202808D1D5F81402314682682846904763
:1043B0000020BDE8F0817078002855D001282AD06F
:1043C00003287AD195F8FC01022802D003281BD1DA
:1043D00007E02CB1802C03D021462846FFF73FFE92
:1043E00017E0708830B92CB1802C03D021462846C4
:1043F000FFF735FED5F8140231468268284690470B
:104400002846FFF7FAF904E031462846FFF7B7F9E6
:1044100000BF00BF62E095F8FC01022802D003282B
:104420001BD107E02CB1802C03D021462846FFF792
:1044300016FE17E0708878B904F07F0048B1214675
:104440002846FFF7BFFBD5F814023146826828469C
:1044500090472846FFF7D1F904E031462846FFF798
:104460008EF900BF00BF39E095F8FC01022802D0A8
:1044700003282BD107E004F07F0018B1214628461D
:10448000FFF7EDFD27E004F08000802806D104F05E
:104490007F0105F1140000EB011005E004F07F013D
:1044A00005F5827000EB0110074621462846FFF70C
:1044B000C5FC18B10120386002E00EE00020386031
:1044C000022239462846FFF787F904E0314628469C
:1044D000FFF755F900BF00BF00E000BF00BF404636
:1044E00067E770B504460D46002694F8FC010328E2
:1044F00014D1287902280CDCD4F8140229468268E9
:1045000020469047E88840B93EB92046FFF775F944
:1045100003E029462046FFF732F904E02946204609
:10452000FFF72DF900BF00BF002070BD70470000ED
:1045300001460148704700005C09002010B50246A2
:10454000C87830B101282CD0022810D0032836D1E9
:1045500019E00878400032F8100048F68F13184030
:1045600040F400700B785B0022F8130028E0087814
:10457000400032F8100048F68F1318400B785B00AB
:1045800022F813001CE00878400032F8100048F6CA
:104590008F13184040F4C0600B785B0022F81300C2
:1045A0000EE00878400032F8100048F68F131840EB
:1045B00040F480600B785B0022F8130000E000BF3D
:1045C00000BF0878400032F8100048F68F7318409A
:1045D00048F2800318430B7818435B0022F813005D
:1045E000887A00287DD1487898B3888840104400A4
:1045F000B2F85030087803EBC00002F5806343F84E
:1046000010400878400032F8100000F0400068B117
:104610000878400032F8100048F68F73184048F2CE
:10462000C00318430B785B0022F813000B785B0083
:1046300032F8133048F6BF7403EA040080F020001B
:1046400040F4004343F080030C78640022F81430F7
:1046500047E1FFE7888840104400B2F850300878FE
:1046600003EBC000001D02F5806343F81040B2F870
:104670005040087804EBC000801D1C4604EB40034A
:104680000C693E2C10D90C69C4F34F100C7C04F05B
:104690001F040CB9441EA0B24FF6FF7404EA802434
:1046A00044F400441C600DE00C69C4F34F000C7C22
:1046B00004F001040CB1441CA0B24FF6FF7404EAEC
:1046C00080241C600878400032F8100000F480401C
:1046D00078B10878400032F8100048F68F7318401F
:1046E00000E01BE04CF2800318430B785B0022F8DB
:1046F00013000B785B0032F813304BF68F7403EA2B
:10470000040080F4805080F4005040F4004343F0F3
:1047100080030C78640022F81430E2E0087840004E
:1047200032F8100040F4807048F68F73184048F259
:10473000800318430B785B0022F81300C8884010F0
:104740004400B2F85030087803EBC00002F58063F3
:1047500043F81040088940104400B2F850300878FF
:1047600003EBC000001D02F5806343F81040487859
:10477000F0BB0878400032F8100000F4804068B1C7
:104780000878400032F8100048F68F7318404CF259
:10479000800318430B785B0022F813000878400070
:1047A00032F8100000F0400068B10878400032F89C
:1047B000100048F68F73184048F2C00318430B7876
:1047C0005B0022F813000878400032F8100048F629
:1047D0008F73184048F2C00318430B785B0022F82F
:1047E00013000B785B0032F813304BF68F7400E047
:1047F0001EE003EA040080F4805080F4005040F48E
:10480000004343F080030C78640022F814300B78E6
:104810005B0032F8133048F6BF7403EA040040F43A
:10482000004343F080030C78640022F8143058E011
:104830000878400032F8100000F4804068B1087831
:10484000400032F8100048F68F7318404CF2800395
:1048500018430B785B0022F813000878400032F808
:10486000100000F0400068B10878400032F81000F5
:1048700048F68F73184048F2C00318430B785B006A
:1048800022F813000878400032F8100048F68F73C1
:1048900018404CF2800318430B785B0022F8130099
:1048A0000B785B0032F8133048F6BF7403EA04005B
:1048B00040F4004343F080030C78640022F8143085
:1048C0000B785B0032F813304BF68F7403EA040068
:1048D00040F4004343F080030C78640022F8143065
:1048E00000BF002010BD10B50446002010BD10B55B
:1048F0000246887A00284DD1487828B308784000CD
:1049000032F8100000F0400068B10878400032F83A
:10491000100048F68F73184048F2C00318430B7814
:104920005B0022F813000B785B0032F8133048F676
:10493000BF7403EA040040F4004343F080030C78A2
:10494000640022F81430DAE00878400032F81000F1
:1049500000F4804068B10878400032F8100048F652
:104960008F7318404CF2800318430B785B0022F8D9
:1049700013000B785B0032F813304BF68F7403EAA8
:10498000040040F4004343F080030C78640022F8F4
:104990001430B4E04878002858D10878400032F844
:1049A000100000F4804068B10878400032F8100030
:1049B00048F68F7318404CF2800318430B785B0065
:1049C00022F813000878400032F8100000F0400090
:1049D00068B10878400032F8100048F68F7318402C
:1049E00048F2C00318430B785B0022F813000878E4
:1049F000400032F8100048F68F73184048F2C003A8
:104A000018430B785B0022F813000B785B0032F838
:104A100013304BF68F7403EA040040F4004343F074
:104A200080030C78640022F814300B785B0032F8B5
:104A3000133048F6BF7403EA040040F4004343F027
:104A400080030C78640022F8143058E008784000A5
:104A500032F8100000F4804068B10878400032F865
:104A6000100048F68F7318404CF2800318430B78FF
:104A70005B0022F813000878400032F8100000F0C4
:104A8000400068B10878400032F8100048F68F7393
:104A9000184048F2C00318430B785B0022F813005B
:104AA0000878400032F8100048F68F7318404CF236
:104AB000800318430B785B0022F813000B785B002F
:104AC00032F8133048F6BF7403EA040040F40043A0
:104AD00043F080030C78640022F814300B785B00FC
:104AE00032F813304BF68F7403EA040040F40043AD
:104AF00043F080030C78640022F8143000BF0020DB
:104B000010BD01460020704701460020704710B5D7
:104B10000446012024F8400F00202080A08020823D
:104B2000403C204600F046FA002010BD014600221D
:104B30004FF43D42B1F840009043A1F840000020FE
:104B4000704702460020704710B50246487848B3C7
:104B50000878400032F8100000F0400068B1087892
:104B6000400032F8100048F68F73184048F2C00336
:104B700018430B785B0022F813000B785B0032F8C7
:104B8000133048F6BF7403EA040080F0100080F090
:104B9000200040F4004343F080030C78640022F8C6
:104BA000143029E00878400032F8100000F480400A
:104BB00068B10878400032F8100048F68F7318404A
:104BC0004CF2800318430B785B0022F813000B783B
:104BD0005B0032F813304BF68F7403EA040080F464
:104BE000805080F4005040F4004343F080030C7880
:104BF000640022F8143000BF002010BD10B502463A
:104C00000878A0B90B785B0032F813304BF6BF740C
:104C100003EA040080F4805080F0100040F4004368
:104C200043F080030C78640022F8143027E04878C1
:104C300090B10B785B0032F8133048F6BF7403EA8A
:104C4000040080F0100040F4004343F080030C782F
:104C5000640022F8143012E00B785B0032F8133055
:104C60004BF68F7403EA040080F4805040F4004354
:104C700043F080030C78640022F8143000BF002059
:104C800010BDF0B506460C460027A56960780128DE
:104C90007CD12169A069884204D92569A069401B9B
:104CA000A06102E0A5690020A061A07A80B9ABB242
:104CB000A2883046616900F0B4F9B6F85010207847
:104CC00001EBC000801C06F5806141F81050A1E0A6
:104CD0002078400036F8100000F04000C0B3607843
:104CE00038BBB6F85020207802EBC000801D06F5D6
:104CF000806202EB40013E2D0ED9C5F34F1005F046
:104D00001F020AB9421E90B24FF6FF7202EA8022D9
:104D100042F400420A600BE0C5F34F0005F00102C7
:104D20000AB1421C90B24FF6FF7202EA80220A607A
:104D30000CE06078012809D1B6F85010207801EB1A
:104D4000C000801C06F5806141F81050278939E0C9
:104D5000FFE7607840BBB6F85020207802EBC00037
:104D6000801C06F5806202EB40013E2D0FD9C5F391
:104D70004F1005F01F020AB9421E90B24FF6FF72A3
:104D800002EA802242F400420A600CE057E0C5F3D8
:104D90004F0005F001020AB1421C90B24FF6FF72BB
:104DA00002EA80220A600CE06078012809D1B6F896
:104DB0005010207801EBC000801C06F5806141F89E
:104DC0001050E788ABB23A463046616900F029F9E5
:104DD000607870B92078400036F8100048F68F717E
:104DE000084048F2C00108432178490026F8110024
:104DF00010E0607801280DD12078400036F81000CE
:104E000048F68F7108404CF2800108432178490030
:104E100026F811002178490036F8111048F6BF72C3
:104E200001EA020080F0100080F0200040F4004110
:104E300041F080012278520026F81210B8E0216972
:104E4000A069884204D92569A069401BA06102E0DD
:104E5000A5690020A061A07A38BBB6F85020207860
:104E600002EBC000801D06F5806202EB40013E2D82
:104E70000ED9C5F34F1005F01F020AB9421E90B2B9
:104E80004FF6FF7202EA802242F400420A600BE011
:104E9000C5F34F0005F001020AB1421C90B24FF673
:104EA000FF7202EA80220A606DE0607838BBB6F8D3
:104EB0005020207802EBC000801C06F5806202EBD7
:104EC00040013E2D0ED9C5F34F1005F01F020AB95F
:104ED000421E90B24FF6FF7202EA802242F4004274
:104EE0000A600BE0C5F34F0005F001020AB1421C55
:104EF00090B24FF6FF7202EA80220A600CE06078FE
:104F0000012809D1B6F85010207801EBC000801CB0
:104F100006F5806141F81050607838BBB6F8502033
:104F2000207802EBC000801D06F5806202EB400194
:104F30003E2D0ED9C5F34F1005F01F020AB9421ECF
:104F400090B24FF6FF7202EA802242F400420A60F9
:104F50000BE0C5F34F0005F001020AB1421C90B20C
:104F60004FF6FF7202EA80220A600CE060780128A6
:104F700009D1B6F85010207801EBC000801C06F56E
:104F8000806141F810502178490036F811104BF635
:104F90008F7201EA020080F4805080F4005040F4E7
:104FA000004141F080012278520026F8121000BF23
:104FB0000020F0BD014600224FF43F42B1F840000E
:104FC0001043A1F8400000207047000010B50248CF
:104FD000FCF7CCF910BD0000FC04002001460020C5
:104FE000B1F844007047F0B55F1C7E100024002526
:104FF00000EB420707F58065344605E035F804CB41
:1050000021F801CB491C641E002CF7D1F0BD0246EB
:1050100000207047024611B98020A2F84C00002001
:1050200070472DE9F041044603F101084FEA680793
:105030000025AC460026002004EB420808F58060FD
:105040003D460BE091F800C0491C91F800804CEA05
:10505000082620F8026B801C491C6D1E002DF1D122
:10506000BDE8F08100BFFEE700BFFEE702E008C830
:10507000121F08C1002AFAD170477047002001E0D2
:1050800001C1121F002AFBD1704700BFEFF305805A
:1050900008B1012070470020FCE7000000B58FB088
:1050A000142212490AA8FBF799F800210AA800F077
:1050B0002BFA0F49086014220C49143105A8FBF79C
:1050C0008DF8002105A800F01FFA0A490860074A78
:1050D000283207CA01AB07C304A80390002101A826
:1050E00000F07CF8044908600FB000BD9C72000815
:1050F000E8000020EC000020F000002000B585B0A2
:10510000142206496846FBF769F80021684600F05A
:10511000FBF90349086005B000BD00008872000873
:10512000E400002000B589B014220C4904A8FBF764
:1051300055F8002104A800F0E7F909490860074A7A
:10514000143207CA8DE8070003A8029000216846C0
:1051500000F044F80349086009B000BD6872000817
:10516000CC000020D0000020FBF796FEFDF752FE99
:10517000FDF7B2FAFDF76EFAFDF70CFBFDF730FB19
:1051800040F6B830FBF7C6FCFDF77EFA00F015F8E4
:1051900000BFFEE701460020842901D0CA1C10444C
:1051A000704770B5044625460DB1294600E001213F
:1051B000084600F0F9FF002070BD10B501F0B4F80A
:1051C000002010BD70B504460E460CB9002070BD1D
:1051D000A06800F0C7F805462846F8E73EB5044643
:1051E0000D460020009001900290206800906068B9
:1051F00001900C2000F08CFCA1680860A068006899
:1052000008B900203EBDA0680068046000220421A7
:10521000206801F085F9A16809684860A068006805
:10522000406828B9A168086800F028FF0020E9E775
:10523000684600F0D4F8A16809688860A068006832
:10524000806828B9A168086800F018FF0020D9E735
:10525000A0680068D6E730B504460D460CB980203A
:1052600030BD2946A06800F0F2F8F9E72DE9FF41CA
:1052700007460C46154602943CB9802000909DE8F4
:10528000070087E80700BDE8FF81002003900026A3
:10529000681C08B9761E03E015B12E4606B9012632
:1052A000FFF7F3FEB0B103AA01A9606801F0E2FBC9
:1052B000012802D12020009001E0002000900398F6
:1052C000C0B14FF080500E490860BFF34F8FBFF35D
:1052D0006F8F0FE00023324601A9606801F04CF99E
:1052E000012802D12020009004E00EB9002000E047
:1052F000402000909DE8070087E8070000BFC2E754
:1053000004ED00E013B582B0044614B9802004B067
:1053100010BD00200190FFF7B8FEA0B1002301AA44
:1053200003A9606801F02AFB012801D0FF20EEE705
:10533000019890B14FF0805009490860BFF34F8F3A
:10534000BFF36F8F09E000231A4603A9606801F0DC
:1053500041FA012801D0FF20D9E70020D7E700005B
:1053600004ED00E02DE9F04104460027B846FFF7C0
:105370008CFE60B100BF5021EFF3118081F31188E2
:10538000BFF34F8FBFF36F8F00BF074601E000F000
:105390002DFE002612E020698519A068A84200D8D9
:1053A00000256068405D40B9012061684855E168AA
:1053B000206805FB0108256103E0761CA068B04267
:1053C000E9D800BFFFF761FE20B100BF87F3118865
:1053D00000BF01E000F034FE4046BDE8F0812DE959
:1053E000F04105466868C01C80088700142000F062
:1053F0008FFB04461CB32868A060E7600020206192
:10540000286800F085FB60606068C8B1296801FB0E
:1054100007F000F07DFB2060206848B1002603E023
:10542000002061688855761C2868B042F8D80BE0E7
:10543000606800F023FE204600F020FE002403E018
:10544000204600F01BFE00242046BDE8F08110B588
:1054500002460B460AB9802010BD0BB98020FBE73D
:105460001068984201D98020F6E71068191AD068B0
:10547000B1FBF0F400FB141008B18020ECE7D06819
:10548000B1FBF0F19068884201D88020E4E7002069
:105490005468605400BFDFE73EB504460D46002067
:1054A00002900190FFF7F1FDB8B102A801AB012213
:1054B00029460090204601F03BFC012802D04FF025
:1054C00000403EBD029898B14FF0805009490860F5
:1054D000BFF34F8FBFF36F8F0AE001AB0122294664
:1054E000204601F0A3FB012802D04FF00040E8E77E
:1054F0000198E6E704ED00E010B501F0BBFC0128DF
:1055000001D000F0F3FF10BDFEB504460D46B4F91E
:105510000800FFF73FFE064602A8CDE90060238A97
:105520009AB22B46D4E9001001F050FB012801D0BB
:105530000020FEBD0298FCE72DE9F04105460E462D
:105540001C4807681C480068001D00F005FD50B9A4
:105550001948006890F82C10012088401749096804
:10556000814316480160681C38B936B11248016899
:10557000091D134800F02EFD1AE07C190E48006842
:105580004460BC4207D20C480168091D0D48006800
:1055900000F006FD0CE008480168091D0A48006893
:1055A00000F0FEFC09480068844201D2074804600C
:1055B000BDE8F081440100203001002048010020B6
:1055C000083500203801002034010020600100204F
:1055D00010B5044600F00AFD23480068401C22492B
:1055E00008602248006840B9204804600846006806
:1055F00001280DD100F08EF90AE01D48006838B985
:105600001A480068C06AE16A884201D817480460F5
:1056100018480068401C1749086094F82C100120B5
:10562000884015490968084313490860E16A01EB9D
:105630008101124A02EB8100211D00F0CBFC00F039
:10564000FFFC0B48006868B108480068C06AE16A5E
:10565000884207D24FF0805009490860BFF34F8F4E
:10566000BFF36F8F10BD000040010020300100200B
:105670004C0100205C010020480100202C34002057
:1056800004ED00E070B523E000F092FE13480068DE
:1056900008B9012000E00020054601F04FFDBDB92A
:1056A00000F0A4FC0D48C068C468201D00F054FC44
:1056B0000B480068401E0A4908600A480068401EFE
:1056C0000849086000F0BCFC204600F060F800BF0C
:1056D000044800680028D7D170BD0000F4340020D1
:1056E000400100203C01002070B504460D46206CAE
:1056F00070B1216CE0680844E0606168E06888424D
:1057000001D32068E0602846226CE168FAF766FD64
:1057100070BD2DE9F04104460F4615464FF00008D4
:10572000A66B206C40B9206860BB606801F056FC35
:1057300080460020606025E07DB93946226CA06873
:10574000FAF74CFD216CA0680844A060D4E9011070
:10575000884217D32068A06014E03946226CE068C4
:10576000FAF73CFD216CE068401AE0602168E068CF
:10577000884203D2216C6068401AE060022D01D19A
:1057800006B1761E701CA0634046BDE8F08110B5DE
:105790000446206B00F072FC204600F06FFC10BD48
:1057A00030B54FF42053174800F007042CB1C01D4A
:1057B00020F00700134C041B1B1B0246124C2260F6
:1057C0000024114D6C60D018083820F007000F4CF1
:1057D000206000240D4D2D686C600C4D2D682C60F0
:1057E0001146441A4C60094C24680C60084D4C6802
:1057F0002C60084D4C682C604FF00044064D2C6026
:1058000030BD00002A0C00200C01002014010020F3
:105810001C010020180100202001002000BFFFF71C
:1058200031FF064800680128F9D94FF0805004493B
:105830000860BFF34F8FBFF36F8FF0E72C34002069
:1058400004ED00E02DE9F04106460D461746984666
:10585000069C0DB9246000E02760E6632564012101
:10586000204600F06BFFBDE8F0812DE9FF5F814627
:105870000F469246DDE90E6B109CAAF10100216BE8
:1058800001EB800828F0070808F0070008B901209C
:1058900000E0002050B900BF502080F31188BFF312
:1058A0004F8FBFF36F8F00BF00BFFEE7002507E0FB
:1058B000795D04F134004155785D00B902E06D1C5A
:1058C000102DF5D300BF002143200155072E00D332
:1058D0000626E66266640020A064201D00F05DFBE1
:1058E00004F1180000F059FB2461C6F10700A06123
:1058F00064620020E06484F8500049464046039A00
:1059000000F0B4F92060BBF1000F01D0CBF80040EB
:10591000BDE8FF9F10B5002407E004EB84010F4AA7
:1059200002EB810000F02CFB641C072CF5D30C4823
:1059300000F026FB0B4800F023FB0B4800F020FB97
:105940000A4800F01DFB0A4800F01AFB0448094908
:10595000086004480849086010BD00002C3400208D
:10596000B8340020CC340020E0340020F43400208F
:1059700008350020340100203801002010B5014610
:10598000164800E0006803688B42FBD30246436878
:1059900013448B4204D143684C682344436001465E
:1059A0000A464B6813440468A34211D10C4C0368A7
:1059B0002468A34208D04B680468646823444B60A1
:1059C00003681B680B6005E0054B1B680B6001E07A
:1059D00003680B60884200D0016010BD0C010020FC
:1059E0001401002070B5054600F000FBA86B08B953
:1059F000012400E0002400F023FB204670BD70B5B8
:105A0000054600F0F3FAA86BE96B884201D1012446
:105A100000E0002400F014FB204670BD0A4909682C
:105A2000096809B9012100E0002121B14FF0FF31DF
:105A3000064A116006E004490968C968C868034A53
:105A400041681160704700003401002060010020AF
:105A50000E480068401C08B9012000E0002050B941
:105A600000BF502080F31188BFF34F8FBFF36F8FBB
:105A700000BF00BFFEE700BF502080F31188BFF3D6
:105A80004F8FBFF36F8F00BF00BFFEE724010020E0
:105A900070B5044600F0AAFA94F9455010E0606A27
:105AA00008B9012000E0002038B904F1240001F019
:105AB000F9FA18B100F0A6FB00E003E0681E45B259
:105AC000002DECDC00BFFF2084F8450000F0B8FAA0
:105AD00000F08CFA94F9445010E0206908B90120D4
