:020000040800F2
:100000005846002099010008A92E0008C1290008BF
:10001000A52E0008850A0008ED3600080000000043
:1000200000000000000000000000000001010008C6
:10003000E50A00080000000045010008253000081E
:10004000B3010008B3010008B3010008B3010008C0
:10005000B3010008B3010008B3010008B3010008B0
:10006000B3010008B3010008B3010008890A0008C1
:10007000B3010008990A0008B3010008B3010008A1
:10008000A90A0008B301000821090008B30100080B
:10009000B3010008B3010008B3010008B301000870
:1000A000B30100082D310008B3010008B3010008B6
:1000B0003D310008B3010008B3010008B301000896
:1000C000B3010008B3010008B3010008B301000840
:1000D000B3010008A9360008B5360008D13600087B
:1000E000670B0008B3010008B3010008DFF80CD06B
:1000F00000F0D8FB00480047ED3A000858460020C1
:10010000224B19680868B0E8F00F80F30988BFF344
:100110006F8F4FF0000080F311884EF00D0E704786
:100120000000000006480068006880F3088862B696
:1001300061B6BFF34F8FBFF36F8F00DF00BF00BF0B
:1001400008ED00E0EFF30980BFF36F8F0F4B1A68E3
:1001500020E9F00F106008B54FF0500080F31188CF
:10016000BFF34F8FBFF36F8F05F0BCFA4FF0000065
:1001700080F31188BDE8084019680868B0E8F00FFE
:1001800080F30988BFF36F8F704700BF38000020ED
:10019000EFF3058070470000064880470648004797
:1001A000FEE7FEE7FEE7FEE7FEE7FEE7FEE7FEE727
:1001B000FEE7FEE7D5300008ED000008202A04DB4A
:1001C000203A21FA02F00021704721FA02F3D040D0
:1001D000C2F1200291400843194670470048704719
:1001E0009068000840EA01039B0703D009E008C9B2
:1001F000121F08C0042AFAD203E011F8013B00F8EC
:10020000013B521EF9D27047D2B201E000F8012B37
:10021000491EFBD270470022F6E710B513460A4686
:1002200004461946FFF7F0FF204610BD80EA0102A0
:1002300010B502F00043400022D04A001FD0010E4A
:1002400001EB1261C0F35600C2F3560240F4000005
:1002500042F40002A0FB022000047F39140400D005
:10026000401C50EA124001D44000491EC2B20C06A4
:1002700004EBD010401C4008802A02D003E000208C
:1002800010BD20F00100002900DA0020184310BD45
:100290002DE9FE4F804681EA0300C00F0C46009016
:1002A00021F0004123F00045B8EB0200A94105D23E
:1002B0004046214690461C460B46024623F000402D
:1002C000104347D0270DC7F30A00C3F30A51029029
:1002D000401A019040286BDAC3F3130040F4801BEE
:1002E0000098924620B10023D2EB030A63EB0B0B7C
:1002F00001985946C0F14002504600F01DFA0646EA
:100300000D4650465946019A00F025FA10EB0800B8
:100310006141002487EA115284EAE7731A4340D00E
:10032000009A62B3019A012A4FEA075215DC001BBA
:1003300061EB02014FF0004202EA0752CDE90042B0
:10034000001C41F5801132462B4600F05CFA03B0E8
:10035000BDE8F08F40462146F9E7001B61EB020142
:10036000001C41F5801300185B412018A2F500170E
:1003700047EB030140EAD570B6196D4111E06D08F5
:100380004FEA360645EAC0754FEA0752001B61EB9B
:100390000201001C41F5801149084FEA30000019A4
:1003A000514132462B4603B0BDE8F04F00F01CBA75
:1003B0000098012240000023D0EB020263EBE073BF
:1003C000009821464FEAE074B8EB000061EB0401AD
:1003D000E9E783F000435BE781F0004158E72DE94E
:1003E000FE4F81EA030404F0004421F00041009430
:1003F0004FF0000B23F0004350EA01045ED052EAB4
:1004000003045BD0C3F30A54C1F30A552C44A4F28D
:10041000F3340194A0FB0254C1F3130141F48011A1
:10042000C3F3130343F4801301FB024400FB034EA8
:10043000840A970A44EA815447EA8357A4FB076871
:1004400002958D0A05FB07854FEA932C04FB0C549B
:100450002705029D4FEA065847EA1637B5EB08050F
:100460006EEB070C870E920E47EA811742EA831261
:10047000A7FB0201B6EB0B0164EB00042B0D43EA72
:100480000C335E1844EB1C50DA465146E7FB020180
:10049000C5F313044FEA0B3343EA14534FEA043213
:1004A000019C43EA0603A4F10C040294009CCDE9EC
:1004B00000B400F0A8F903B0BDE8F08F00200146B9
:1004C000F9E72DE9F04D81EA030404F0004B21F037
:1004D000004514464FF0000A23F0004150EA05029F
:1004E00020D054EA01021DD0C5F30A570246C5F3D5
:1004F0001303C1F31300C1F30A5640F4801543F40B
:100500008013A7EB0608101BD64608F2FD3873EBE4
:10051000050002D308F1010801E092185B41B8F12F
:10052000000F03DA00200146BDE8F08D00204FF4F3
:100530008011064684460EE0171B73EB050705D3B2
:10054000121B63EB050306434CEA010C49084FEA12
:10055000300092185B4150EA0107EDD152EA0300E6
:1005600012D082EA040083EA0501084305D0101B7B
:10057000AB4106D20122002306E000224FF00043E7
:1005800002E06FF0010253101AEB06004CEB085129
:1005900010EB0A0041EB0B01BDE8F04D00F024B96F
:1005A000C10F80EAE0700844CA079623002100F0DA
:1005B000EDB80EB5C10F80EAE0700844CA0700210B
:1005C00040F233438DE80E000A460B4600F01BF95B
:1005D00003B000BD0EB540F2334102910021CDE9D8
:1005E00000110A460B4600F00EF903B000BD00F002
:1005F000004220F00040C10DC0F3160040F400009E
:100600007F2901DA00207047962903DCC1F19601A9
:10061000C84001E096398840002AF4D04042704733
:1006200020F00040C10DC0F3160040F400007F2907
:1006300001DA00207047962903DCC1F19601C84019
:100640007047963988407047C1F30A5210B5C1F31C
:10065000130140F2FF3341F480119A4201DA002085
:1006600010BD40F233439A42A2F2334203DC5242BD
:10067000FFF7A4FD10BD904010BD00F0004230F027
:1006800000400AD0C10D01F56071C0F3160042EAC6
:100690000151C208400711437047002001467047CE
:1006A00030B5041E71F1000404DB4FF000444042F9
:1006B00064EB0101141E73F1000405DB1C464FF0CE
:1006C0000043524263EB04038B4208BF824230BDB9
:1006D00030B5041E71F1000404DB4FF000444042C9
:1006E00064EB0101141E73F1000405DB1C464FF09E
:1006F0000043524263EB0403994208BF904230BD6D
:1007000001F0004330B421F0004150EA010206D06C
:100710000A0DA2F56072C1F31301002A02DC30BC9D
:1007200000207047440F44EAC104C100E01830BC07
:1007300000EBC25000F021B8202A04DB203A00FA76
:1007400002F1002070479140C2F1200320FA03F328
:10075000194390407047202A06DBCB17203A41FA14
:1007600002F043EAE07306E041FA02F3D040C2F13E
:10077000200291400843194670470029A8BF7047DE
:10078000401C490008BF20F00100704710B4B0FAC7
:1007900080FC00FA0CF050EA010404BF10BC704762
:1007A00049B1CCF1200421FA04F411FA0CF118BF7C
:1007B000012121430843A3EB0C01CB1D4FEA00614B
:1007C0004FEA102042BF002010BC704700EBC3501E
:1007D00010440029A4BF10BC7047401C490008BF4A
:1007E00020F0010010BC704710B5141E73F1000416
:1007F00008DA401C41F1000192185B411A4301D113
:1008000020F0010010BD2DE9F04D92469B4611B13C
:10081000B1FA81F202E0B0FA80F220329046FFF79E
:100820008BFF04460F4640EA0A0041EA0B0153469B
:100830005A46084313D0114653EA010019D0C8F1B3
:1008400040025046FFF7BAFC05460E465046594650
:100850004246FFF771FF084305D0012004E020461F
:100860003946BDE8F08D0020054346EAE0762C438A
:1008700037430A986305E40AA0EB08000022FD0A4A
:1008800044EA47540A3002D500200146E9E7010551
:1008900010196941DDE9084500196941BDE8F04DCD
:1008A000A2E70000064C074D06E0E06840F00103B7
:1008B00094E8070098471034AC42F6D3FFF71AFCCF
:1008C000F86800081869000870B58C1810F8015B0A
:1008D00015F0070301D110F8013B2A1106D110F8D9
:1008E000012B03E010F8016B01F8016B5B1EF9D1DD
:1008F0002B0705D40023521E0DD401F8013BFAE763
:1009000010F8013BCB1A921C03E013F8015B01F8CD
:10091000015B521EF9D5A142D8D3002070BD000062
:1009200010B5024800F0D9F910BD00009C0100206C
:1009300070B5044600252068806800F00100F0B121
:100940002068806820F001002168886000F04CFF7A
:1009500005460EE000F048FF401B022809D9A06AB6
:1009600040F01000A062E06A40F00100E062012067
:1009700070BD2068806800F001000028EAD10020E6
:10098000F6E770B505466C6AA06A00F05000E0B961
:10099000A06A40F40070A0622068806800F46020C3
:1009A000B0F5602F0DD1E06858B9A06A20F48070CE
:1009B000A062A06A00F4805018B9A06A40F001005B
:1009C000A062204600F086F903E0206A016B284609
:1009D000884770BD70B505466C6AA06A40F040005B
:1009E000A062E06A40F00400E062204600F074F982
:1009F00070BD70B50446656A284600F06CF970BD9C
:100A000038B504460025002000902068806800F07A
:100A1000010080BB2068806840F001002168886088
:100A2000164800681649B0FBF1F0009002E000980B
:100A3000401E009000980028F9D100F0D5FE054630
:100A400013E000F0D1FE401B02280ED9A06A40F04E
:100A50001000A062E06A40F00100E06200BF0020E8
:100A600084F8240000BF012038BD2068806800F0B1
:100A700001000028E5D00020F6E70000100000206B
:100A800040420F0000BFFEE710B5024800F09AFB9D
:100A900010BD0000CC01002010B5024800F092FB10
:100AA00010BD00001403002010B5024800F08AFBBE
:100AB00010BD0000D002002030B590F84050012455
:100AC000AC40C56B6C60046863604468102C04D152
:100AD0000468A2600468E16003E00468A16004683F
:100AE000E26030BD70472DE9F047074688469146E1
:100AF000464600242CE014B106F00700E8B901F0E6
:100B0000B9FF00250AE001F097FFA02001F062FF85
:100B100001F0C6FF00B904E0681C85B2B5F57A7F24
:100B2000F1DB00BFB5F57A7F00D118E0F0B201F03B
:100B300051FF01F0B5FF00B111E0385D01F04AFF4F
:100B400001F0AEFF00B10AE0701C86B2601C84B2F6
:100B50004C45D0DB01F08EFF0120BDE8F08701F0AD
:100B600089FF0020F9E710B54FF4804000F08EFCBB
:100B700010BD704738B5024600230020009000BF2A
:100B800092F82400012801D1022038BD012082F80A
:100B9000240000BF4868072812D21068406B0C7907
:100BA000641E04EB84051F24AC40A0430D796D1E28
:100BB00005EB85050C68AC4020431468606327E0B2
:100BC00048680D2812D21068006B0C79E41F04EB02
:100BD00084051F24AC40A0430D79ED1F05EB85056E
:100BE0000C68AC4020431468206311E01068C06AB0
:100BF0000C790D3C04EB84051F24AC40A0430D7917
:100C00000D3D05EB85050C68AC4020431468E0629F
:100C100008680A2812D31068C0680C780A3C04EBF4
:100C200044050724AC40A0430D780A3D05EB45057B
:100C30008C68AC4020431468E0600FE010680069E5
:100C40000C7804EB44050724AC40A0430D7805EB79
:100C500045058C68AC402043146820610868102862
:100C600002D00868112827D1174C1068A0421ED165
:100C70001068806800F40000F0B91068806840F4E3
:100C800000001468A0600868102815D10F4800689B
:100C90000F4CB0FBF4F000EB80004000009002E04D
:100CA0000098401E009000980028F9D104E0906A56
:100CB00040F020009062012300BF002082F8240051
:100CC00000BF184661E7000000240140100000202A
:100CD00040420F0070477047704710B504462068C7
:100CE000406800F0200020282FD12068006800F024
:100CF0000200022829D1A06A00F0100018B9A06AE9
:100D000040F40070A0622068806800F46020B0F5B4
:100D1000602F13D1E06888B92068406820F0200077
:100D200021684860A06A20F48070A062A06A00F484
:100D3000805018B9A06A40F00100A0622046FFF779
:100D4000C9FF6FF01200216808602068406800F059
:100D5000800080283BD12068006800F0040004284F
:100D600035D1A06A00F0100018B9A06A40F4005014
:100D7000A0622068806800F4E040B0F5E04F0DD03C
:100D80002068406800F48060D0B92068806800F472
:100D90006020B0F5602F13D1E06888B92068406802
:100DA00020F0800021684860A06A20F48050A06292
:100DB000A06A00F4807018B9A06A40F00100A06237
:100DC0002046FFF7D6FE6FF00C002168086020680F
:100DD000406800F0400040280FD12068006800F013
:100DE000010050B1A06A40F48030A062204600F0BB
:100DF000A7F86FF001002168086010BD2DE9F041EF
:100E00000446002700250026A84614B90120BDE8A5
:100E1000F081A06810B1606900B100BFA06A30B96C
:100E20000020E06284F82400204600F08BF8204681
:100E3000FFF77EFD0746A06A00F01000002873D17E
:100E4000002F71D1A06A20F4885040F00200A06207
:100E5000E16960680843E16840EA41000643A06830
:100E6000B0F5807F02D0A068012802D14FF48070D5
:100E700000E0002005436069012811D1E06838B91D
:100E8000A069401E4FF4006141EA4030054307E08D
:100E9000A06A40F02000A062E06A40F00100E06239
:100EA0002068406820F46940284321684860206831
:100EB000806821490840304321688860A068B0F507
:100EC000807F02D0A068012802D14FF4807000E03A
:100ED0000020B0F5807F03D1208A401E4FEA0058E1
:100EE0002068C06A20F4700040EA08002168C862E7
:100EF0002068806811490840B04208D10020E062B3
:100F0000A06A20F0020040F00100A06211E0A06A97
:100F100020F0020040F01000A062E06A40F0010002
:100F2000E062012705E0FFE7A06A40F01000A06240
:100F3000012738466BE70000FDF7E1FFFE0E1FFFBB
:100F40007047000010B586B00446254920688842E5
:100F500044D100BF2348806940F400702149886172
:100F60000846806900F40070019000BF00BFF020C7
:100F700002900320039002A91B4800F095FA01207B
:100F800002900320039002A9184800F08DFA184837
:100F90001849086000204860002116488160C1603F
:100FA0004FF40071016189004161002181614FF4BA
:100FB0008051C16100F0D4F918B1A9210EA002F04E
:100FC00097FB00BF0B482062446200BF002205214E
:100FD000122000F0D4FC122000F0C4FC06B010BDBA
:100FE000002401400010024000080140000C0140B4
:100FF00008000240CC0100202E2E2F5372632F6177
:1010000064632E63000000002DE9F04104460D46A4
:101010001646002757492068884203D05649206861
:10102000884205D15348001D006800F4702000E09C
:10103000002000287ED100BF94F82400012802D1AE
:101040000220BDE8F081012084F8240000BF204682
:10105000FFF7D6FC0746002F6DD1A06A40F601616C
:10106000884340F48070A06243492068884209D1D7
:101070004048001D006800F4702008B9012002E01B
:10108000002000E0012078B1A06A20F48010A06266
:101090002068406800F4806000B3A06A20F400502B
:1010A00040F48050A06219E0A06A40F48010A06271
:1010B00030492068884203D02F492068884205D1F2
:1010C0002C48001D006800F4806000E0002028B17A
:1010D000A06A20F4005040F48050A062A06A00F49E
:1010E000805020B1E06A20F00600E06201E00020BC
:1010F000E06200BF002084F8240000BF1F48216A7E
:1011000088621F48216AC8621E48216A08636FF01E
:101110000200216808602068806840F480702168BF
:101120008860226802F14C0133462A46206A00F0AA
:101130004FF901E01AE014E02068806800F46020B4
:10114000B0F5602F06D12068806840F4A0002168C7
:1011500088600CE02068806840F480102168886016
:1011600005E000BF002084F8240000E00127384695
:1011700067E70000002401400028014083090008BF
:10118000F3090008D5090008014600200A68126822
:1011900022F00E020B681A600A68126822F001023F
:1011A0000B681A6091F8403001229A40CB6B5A606C
:1011B000012281F8212000BF002281F8202000BFF9
:1011C0007047000070B50446E06B0568206806684B
:1011D00094F84010042088402840002846D006F0AB
:1011E0000400002842D02068006800F0200028B9E0
:1011F0002068006820F004002168086057492068D2
:10120000884201D1042027E05449143120688842E3
:1012100001D1402020E0514928312068884201D185
:10122000001519E04D493C312068884202D14FF445
:10123000804011E0494950312068884202D14FF482
:10124000802009E0454964312068884202D14FF48A
:10125000800001E04FF08060404908394860E06A52
:1012600000287AD02046E16A884776E094F840105A
:10127000022088402840A0B306F0020088B320680E
:10128000006800F0200040B92068006820F00A00E3
:1012900021680860012084F82100304920688842D4
:1012A00001D1022028E02D4914312068884201D163
:1012B000202021E0294928312068884201D14015A9
:1012C0001AE026493C312068884202D14FF4005090
:1012D00012E0224950312068884203D14FF4003097
:1012E0000AE017E01D4964312068884202D14FF4BA
:1012F000001001E04FF0007018490839486000BF45
:10130000002084F8200000BFA06A30B32046A16A04
:10131000884722E094F84010082088402840E0B137
:1013200006F00800C8B12068006820F00E002168AF
:10133000086094F8401001208840E16B486001206B
:10134000A06384F8210000BF002084F8200000BFC3
:10135000206B10B12046216B884770BD0800024009
:101360000146002209B901207047184B0868C01ACD
:101370001423B0FBF3F08000086414480838C863F5
:10138000022081F821000868026843F6F070824369
:10139000D1E901031843CB6818430B6918434B6923
:1013A00018438B691843CB691843024308680260ED
:1013B00000208862C862086348638863012081F85E
:1013C0002100002081F8200000BFCDE70800024086
:1013D0002DE9F04104460D4616461F464FF0000821
:1013E00000BF94F82000012802D10220BDE8F0815E
:1013F000012084F8200000BF94F8210001282CD19E
:10140000022084F821000020A0632068006820F0FA
:101410000100216808603B46324629462046FFF716
:101420004BFBE06A30B12068006840F00E00216894
:1014300008600BE02068006820F004002168086064
:101440002068006840F00A00216808602068006891
:1014500040F001002168086006E000BF002084F829
:10146000200000BF4FF002084046BFE710B5044619
:10147000B4F5804F07D100F0B7F9B0F57A7F01D904
:1014800002F066FB00BF00BF10BD000010B50446AF
:1014900004480068204020B1024804602046FFF75D
:1014A000E5FF10BD140401402DE9F8470346002470
:1014B000002000258446002700226EE14FF001083D
:1014C00008FA02F4D1F8008008EA0400A0427DD1B5
:1014D000DFF8D0A2D1F80480A8EB0A09D0453AD0B1
:1014E00014DCB8F1030F50D009DCB8F1000F31D093
:1014F000B8F1010F1CD0B8F1020F49D120E0B8F1CA
:10150000110F18D0B8F1120F42D11EE0B9F5881FA3
:1015100025D006DCB9F5803F20D0B9F5801F37D142
:101520001AE0B9F5001F18D0B9F5041F30D117E043
:10153000D1F80CC02DE0D1F80C8008F1040C28E0A3
:10154000D1F80C8008F1080C23E0D1F80C8008F1E8
:101550000C0C1EE000BF00BF00BF00BF00BF00BFFB
:10156000D1F80880B8F1000F02D14FF0040C0BE065
:10157000D1F80880B8F1010F03D14FF0080C1C61BD
:1015800002E04FF0080C5C6103E04FF0000C00E05B
:1015900000BF00BFFF2801D8984601E003F104080E
:1015A0004646FF2802D84FEA820803E0A2F1080865
:1015B0004FEA88084746D6F800804FF00F0909FA2D
:1015C00007F928EA09080CFA07F900E088E048EA78
:1015D0000908C6F80080D1F8048008F08058B8F1F6
:1015E000805F7DD100BFDFF8C081D8F8188048F057
:1015F0000108DFF8B491C9F81880C846D8F81880F7
:1016000008F00108CDF8008000BF00BF4FEAB938EC
:101610004FEA920958F829504FEA82784FEA187930
:101620004FF00F0808FA09F825EA0805DFF87C8171
:10163000434502D14FF0000816E0DFF874814345BE
:1016400002D14FF001080FE0DFF86881434502D175
:101650004FF0020808E0DFF86081434502D14FF007
:10166000030801E04FF004084FEA82794FEA197944
:1016700008FA09F848EA0505DFF840814FEA9209BF
:1016800048F82950D1F8048008F48038B8F5803F34
:101690000AD1DFF82C81D8F8008048EA0008DFF88A
:1016A0002091C9F8008009E0DFF81481D8F80080A3
:1016B00028EA0008DFF80891C9F80080D1F8048012
:1016C00008F40038B8F5003F10D1DFF8F48008F1D5
:1016D0000408D8F8008048EA0008DFF8E49000E049
:1016E0005AE009F10409C9F800800DE0DFF8D08064
:1016F00008F10408D8F8008028EA0008DFF8C09054
:1017000009F10409C9F80080D1F8048008F48018B0
:10171000B8F5801F0ED1DFF8A88008F10808D8F8C6
:10172000008048EA0008DFF8989009F10809C9F834
:1017300000800DE0DFF8888008F10808D8F8008004
:1017400028EA0008DFF8789009F10809C9F8008054
:10175000D1F8048008F40018B8F5001F0ED1DFF8A6
:10176000608008F10C08D8F8008048EA0008DFF82B
:10177000509009F10C09C9F800800DE0DFF84080B5
:1017800008F10C08D8F8008028EA0008DFF830904B
:1017900009F10C09C9F80080521C102AFFF48EAE22
:1017A000BDE8F88700001110001002400008014059
:1017B000000C0140001001400014014008000140ED
:1017C00000040140024693680B400BB1012000E089
:1017D00000207047C2684A40C26070470AB1016188
:1017E00001E00B0403617047014800687047000086
:1017F00004000020034800680349097808440149AF
:1018000008607047040000200C00002010B5084854
:10181000006840F0100006490860032000F0EEF870
:10182000002000F007F800F049F8002010BD00008B
:101830000020024070B588B0044600250026002232
:101840002146192000F09BF8192000F08BF800BF0A
:101850001648806940F40060144988610846806930
:1018600000F40060019000BF00BF02A903A800F0CF
:1018700043FA00F079FA05460D48B5FBF0F0461E34
:101880000C480D49086040F2E7310B48C1604660E2
:1018900000210161816000F042FD20B9064800F09E
:1018A00079FD08B070BD0120FBE700000010024088
:1018B00040420F00002C01405803002008B500BF33
:1018C0002648806940F00100244988610846806903
:1018D00000F00100009000BF00BF00BF0846C069D3
:1018E00040F08050C8610846C06900F08050009008
:1018F00000BF00BF032000F081F8002211466FF006
:101900000B0000F03CF8002211466FF00A0000F0D6
:1019100036F8002211466FF0090000F030F800227E
:101920001146501F00F02BF800221146101F00F046
:1019300026F800220F21901E00F021F800220F212E
:10194000501E00F01CF800BF0549486820F0E06018
:1019500040F00070486000BF08BD00000010024069
:101960000000014000BF00F01F0201219140420928
:10197000920002F1E022C2F8001100BF70472DE989
:10198000F05F80460D461646002701F08FFA0746A5
:1019900039462A46334601F00700C0F1070ABAF17A
:1019A000040F02D94FF0040A01E0C0F1070AD14642
:1019B00000F1040ABAF1070F02D24FF0000A01E069
:1019C000A0F1030AD4464FF0010A0AFA09FAAAF173
:1019D000010A0AEA020A0AFA0CFA4FF0010B0BFAA2
:1019E0000CFBABF1010B0BEA030B4AEA0B0421469B
:1019F000404601F063FABDE8F09F000000BF00F030
:101A00000702064B19684FF6FF031940044B0B43BE
:101A100043EA0221014B196000BF70470CED00E062
:101A20000000FA05F8B5044600260025207800F0ED
:101A3000010000286BD000274348C06900F08050A7
:101A400070B900BF4048C06940F080503E49C8614D
:101A50000846C06900F08050009000BF00BF012719
:101A60003A48006800F48070B0B93848006840F423
:101A7000807036490860FFF7B7FE064606E0FFF7BC
:101A8000B3FE801B642801D90320F8BD2F480068ED
:101A900000F480700028F2D02B48006A00F44075F2
:101AA0002DB3A08800F44070A84220D02648006AD8
:101AB00020F4407501202649086000200860224873
:101AC000056205F0010090B1FFF78EFE064608E0C2
:101AD000FFF78AFE801B41F28831884201D903203A
:101AE000D3E71948006A00F002000028F0D0164839
:101AF000006A20F440706168084313490862012FAE
:101B000004D10846C06920F08050C86100BF207829
:101B100000F00200022807D10B48406820F4404042
:101B2000A168084308494860207800F01000102898
:101B300007D10548406820F48000E1680843024965
:101B400048600020A1E70000001002400070004043
:101B50004004424270B504460D46002662480068C3
:101B600000F00700A8420ED25F48006820F007008E
:101B700028435D4908600846006800F00700A84255
:101B800001D0012070BD207800F00200022807D1AA
:101B90005648406820F0F000A16808435349486067
:101BA000207800F0010000285DD06068012806D18F
:101BB0004E48006800F4003090B90120E2E7606808
:101BC000022806D14948006800F0007040B90120A1
:101BD000D8E74648006800F0020008B90120D1E7C4
:101BE0004248406820F00300616808433F4948606C
:101BF000FFF7FAFD06466068012810D108E0FFF7FC
:101C0000F3FD801B41F28831884201D90320B9E7F6
:101C10003648406800F00C000428F0D123E06068EA
:101C2000022810D108E0FFF7DFFD801B41F2883168
:101C3000884201D90320A5E72C48406800F00C0039
:101C40000828F0D10FE008E0FFF7CEFD801B41F23D
:101C50008831884201D9032094E72448406800F085
:101C60000C000028F0D12048006800F00700A842CE
:101C70000ED91D48006820F0070028431A49086063
:101C80000846006800F00700A84201D0012079E76B
:101C9000207800F00400042807D11448406820F49C
:101CA000E060E168084311494860207800F00800CE
:101CB000082808D10D48406820F46050216940EAA6
:101CC000C1000A49486000F05FF808494968C1F35B
:101CD0000311074A515CC840064908600020FFF71D
:101CE000A9FD00204EE70000002002400010024045
:101CF00060670008100000200F2202600D4A526841
:101D000002F0030242600B4A526802F0F002826065
:101D1000084A526802F4E062C260064A526802F45D
:101D20006052D2080261044A126802F007020A6097
:101D30007047000000100240002002400148006887
:101D4000704700001000002000B5FFF7F7FF0449BE
:101D50004968C1F30221034A515CC84000BD00003C
:101D6000001002407067000800B5FFF7E7FF044964
:101D70004968C1F3C221034A515CC84000BD00005C
:101D80000010024070670008F0B585B00FF26C0CCF
:101D90009CE8E01001A8A0E8E0101CA52D680095C3
:101DA00000210022002300240020194D696801F061
:101DB0000C05F5B1042D02D0082D19D101E015480C
:101DC00019E001ADC1F38346AC5D01F4803555B136
:101DD0000F4D6D68C5F340451DF805200D4D654359
:101DE000B5FBF2F302E00C4D04FB05F3184602E0EC
:101DF00000BF084800BF00BF05B0F0BD02030405E6
:101E0000060708090A0B0C0D0E0F10100102000046
:101E10000010024000127A0000093D00F8B50446A7
:101E20000025207800F00100002878D0F8484068AC
:101E300000F00C0004280CD0F548406800F00C00BD
:101E4000082811D1F248406800F48030B0F5803F96
:101E50000AD1EF48006800F4003000285FD06068C5
:101E600000285CD10120F8BD00BF6068B0F5803F5C
:101E700006D1E748006840F48030E549086028E072
:101E8000606858B9E248006820F48030E049086092
:101E90000846006820F4802008601AE06068B0F509
:101EA000A02F0BD1DA48006840F48020D8490860A0
:101EB0000846006840F4803008600AE0D4480068B2
:101EC00020F48030D24908600846006820F4802061
:101ED000086000BF606888B1FFF786FC054606E031
:101EE000FFF782FC401B642801D90320BBE7C848E8
:101EF000006800F400300028F2D010E0FFF774FC16
:101F0000054606E0FFF770FC401B642801D903205A
:101F1000A9E7BF48006800F400300028F2D120781B
:101F200000F00200022857D1B948406800F00C00C8
:101F300050B1B748406800F00C00082818D1B448E8
:101F4000406800F4803098B9B148006800F00200A1
:101F500020B12069012801D0012084E7AC48006845
:101F600020F0F800616940EAC100A949086033E047
:101F70002069E8B10120A7490860FFF735FC054654
:101F800006E0FFF731FC401B022801D903206AE775
:101F90009F48006800F002000028F2D09C480068CA
:101FA00020F0F800616940EAC1009949086013E037
:101FB000002098490860FFF717FC054606E0FFF788
:101FC00013FC401B022801D903204CE7904800680D
:101FD00000F002000028F2D1207800F00800082864
:101FE0002DD1A069B8B101208B490860FFF7FCFB37
:101FF000054606E0FFF7F8FB401B022801D9032045
:1020000031E78348406A00F002000028F2D0012046
:1020100000F072FF13E000207F490860FFF7E4FB47
:10202000054606E0FFF7E0FB401B022801D903202C
:1020300019E77748406A00F002000028F2D12078C2
:1020400000F00400042873D100267148C06900F034
:10205000805070B900BF6E48C06940F080506C4934
:10206000C8610846C06900F08050009000BF00BF02
:1020700001266A48006800F48070B0B967480068BB
:1020800040F4807065490860FFF7AEFB054606E046
:10209000FFF7AAFB401B642801D90320E3E65F4851
:1020A000006800F480700028F2D000BFE0680128CA
:1020B00006D15748006A40F001005549086227E000
:1020C000E06858B95248006A20F00100504908629F
:1020D0000846006A20F00400086219E0E06805285C
:1020E0000BD14B48006A40F0040049490862084699
:1020F000006A40F0010008620AE04548006A20F0EA
:102100000100434908620846006A20F004000862A2
:1021100000BFE068A0B1FFF767FB054609E0FFF7E5
:1021200063FB401B41F28831884202D903209AE6C2
:1021300022E03748006A00F002000028EFD012E0E9
:10214000FFF752FB054608E0FFF74EFB401B41F24C
:102150008831884201D9032085E62D48006A00F0C5
:1021600002000028F0D1012E05D12948C06920F0D5
:1021700080502749C86100BFE069C8B3244840685F
:1021800000F00C00082860D0E069022848D1002047
:1021900020490866FFF728FB054606E0FFF724FB09
:1021A000401B022801D903205DE61948006800F0B1
:1021B00000700028F2D1206AB0F5803F07D11448A2
:1021C000406820F40030A168084311494860D4E910
:1021D000080108430E49496821F4741108430C4969
:1021E000486001200B490866FFF7FEFA054607E044
:1021F0002DE0FFF7F9FA401B022801D9032032E64F
:102200000348006800F000700028F2D01FE00000D2
:102210000010024000004242800442420070004030
:1022200000200C490866FFF7DFFA054606E0FFF7D5
:10223000DBFA401B022801D9032014E60648006897
:1022400000F000700028F2D101E001200BE6002030
:1022500009E600000000424200100240042808D1B4
:102260004FF0E021096941F004014FF0E0221161D3
:1022700007E04FF0E021096921F004014FF0E0226E
:102280001161704770B504462546681EB0F1807F25
:1022900001D301200FE0681E4FF0E02148610F21BB
:1022A0004FF0FF3000F00AFE00204FF0E02188617F
:1022B00007200861002070BD70477047024600BFCC
:1022C00092F83C00012801D102207047012082F8D9
:1022D0003C0000BF022082F83D001068406820F0FA
:1022E000700013685860106840680B6818431368E2
:1022F00058601068806820F080001368986010684B
:1023000080684B68184313689860012082F83D008C
:1023100000BF002082F83C0000BF00BFD5E710B529
:1023200004460CB9012010BD94F83D0028B90020E6
:1023300084F83C00204600F00DF8022084F83D00AF
:10234000211D206800F002FF012084F83D000020DC
:10235000E9E7000038B504462068B0F1804F15D198
:1023600000BF0B48C06940F001000949C861084638
:10237000C06900F00100009000BF00BF00220521ED
:102380001C20FFF7FCFA1C20FFF7ECFA38BD000018
:102390000010024001460868C06840F001000A6869
:1023A000D0600868006840F001000A6810600020F2
:1023B00070472DE9F04104460D46002600BF94F811
:1023C0003C00012802D10220BDE8F081012084F800
:1023D0003C0000BF022084F83D002068866826F09B
:1023E000770626F47F4620688660286850283BD010
:1023F0000CDC202860D004DC002853D0102865D1E4
:1024000055E030285DD0402860D141E0602835D0CB
:1024100070280DD0B0F5805F03D0B0F5005F55D1C6
:1024200015E02068806820F00700216888604EE091
:10243000D5E902136A68206800F0C2FE2068866849
:1024400026F0770646F07706206886603FE0D5E9FB
:1024500002136A68206800F0B3FE2068806840F4C8
:1024600080402168886032E0EA686968206800F08E
:10247000BDFE5021206800F0AFFE28E0EA686968E0
:10248000206800F0C8FE6021206800F0A5FE1EE074
:10249000EA686968206800F0A9FE4021206800F021
:1024A0009BFE14E00021206800F096FE0FE0102152
:1024B000206800F091FE0AE02021206800F08CFEE8
:1024C00005E03021206800F087FE00E000BF00BF7B
:1024D000012084F83D0000BF002084F83C0000BFCC
:1024E00000BF71E7704710B5044620680069C0F36B
:1024F0004000D8B12068C068C0F34000B0B16FF0B0
:10250000020021680861012020772068806900F0BE
:10251000030018B12046FFF7E5FF05E0204600F074
:10252000ADF8204600F0ABF8002020772068006965
:10253000C0F38000D8B12068C068C0F38000B0B19B
:102540006FF004002168086102202077206880690C
:1025500000F4407018B12046FFF7C4FF05E02046A4
:1025600000F08CF8204600F08AF8002020772068E0
:102570000069C0F3C000D8B12068C068C0F3C000D3
:10258000B0B16FF00800216808610420207720684E
:10259000C06900F0030018B12046FFF7A3FF05E073
:1025A000204600F06BF8204600F069F80020207704
:1025B00020680069C0F30010D8B12068C068C0F37B
:1025C0000010B0B16FF0100021680861082020777A
:1025D0002068C06900F4407018B12046FFF782FF00
:1025E00005E0204600F04AF8204600F048F80020B8
:1025F00020772068006900F0010058B12068C068A9
:1026000000F0010030B16FF0010021680861204640
:1026100000F036F820680069C0F3C01058B1206897
:10262000C068C0F3C01030B16FF08000216808614D
:102630002046FFF741FE20680069C0F3801058B1C2
:102640002068C068C0F3801030B16FF0400021688E
:102650000861204600F02EF820680069C0F34010A1
:1026600058B12068C068C0F3401030B16FF020004E
:10267000216808612046FFF720FE10BD70477047B3
:1026800010B5044608492068884202D1FFF7B2F825
:1026900008E02068B0F1804F04D1052203490448C6
:1026A000FEF7B2FC10BD0000002C0140900100209C
:1026B0009C010020704770B50446002520684069E1
:1026C000C0F3C01594F8390021280ED16DB12068EF
:1026D000406920F0800021684861206B10B1206BB8
:1026E000FEF752FD204600F06FFE20684069C0F3FF
:1026F000801594F83A0022280ED16DB12068406907
:1027000020F0400021684861606B10B1606BFEF7FB
:102710003BFD204600F048FE002070BD704710B51C
:1027200004460CB9012010BDA06900B100E000BF53
:1027300094F8390028B9002084F83800204600F0C9
:1027400027F8242084F839002068C06820F400505D
:102750002168C860204600F0C3FE2068006920F4AC
:102760009040216808612068406920F02A002168B3
:1027700048612068C06840F400502168C8600020AB
:10278000E063202084F8390084F83A000020CAE78A
:1027900010B586B004464C492068884246D100BF37
:1027A0004A48C06940F400304849C8610846C069D9
:1027B00000F40030019000BF00BF0420029002200E
:1027C00003900120059002A94148FEF76DFE082004
:1027D000029000200390049002A93D48FEF764FE99
:1027E0003C483D4908600020486000213A4881602B
:1027F0008021C16000210161416181614FF48051FC
:10280000C161FEF7ADFD18B18E2134A000F070FF5C
:1028100000BF31486063446200BF002205212620CA
:10282000FFF7ADF82620FFF79DF84BE02F49206811
:10283000884247D100BF2548C06940F48020234921
:10284000C8610846C06900F48020019000BF00BF45
:1028500008150290022003900320059002A9244845
:10286000FEF722FE4FF400600290002003900490D7
:1028700002A91F48FEF718FE16483C381D4908609B
:102880000020486000211B4881608021C160002138
:102890000161416181614FF48051C161FEF760FDCA
:1028A00018B1BC210DA000F023FF00BF11486063E8
:1028B000446200BF002205212720FFF760F827208F
:1028C000FFF750F806B010BD004400400010024071
:1028D000000801406C000240D00200202E2E2F5331
:1028E00072632F75736172742E630000004800409C
:1028F000000C01401403002077B581B00446154652
:1029000094F83A00202850D1029800B115B901205E
:1029100004B070BD00BF94F83800012801D1022036
:10292000F6E7012084F8380000BF0298A062A58570
:102930000020E063222084F83A001D48616B886221
:102940001C48616BC8621C48616B08630020616BA6
:10295000486302AE32682368191D2B46606BFEF790
:1029600037FD00BF002000902068006800902068BC
:102970004068009000BF00BF00BF002084F838000E
:1029800000BF2068C06840F480702168C86020687B
:10299000406940F00100216848612068406940F0CA
:1029A0004000216848610020B2E70220B0E7000043
:1029B000553300089B330008053300087047704703
:1029C00000BFFEE7002001E0411CC8B20A28FBDB83
:1029D0007047000070B50446002528E004F0800030
:1029E00028B1012210211348FEF7F8FE04E000226E
:1029F00010211048FEF7F2FEFFF7E4FF012220212C
:102A00000C48FEF7EBFEFFF7DDFF0022202109480E
:102A1000FEF7E4FE072D04D1012210210548FEF740
:102A2000DDFE6006040EFFF7CDFF681CC5B2082D61
:102A3000D4DB70BD0018014010B5012210210C48F4
:102A4000FEF7CCFE012220210948FEF7C7FEFFF762
:102A5000B9FF002210210648FEF7C0FEFFF7B2FFC3
:102A6000002220210248FEF7B9FEFFF7ABFF10BDA0
:102A70000018014010B5002210210848FEF7AEFEF4
:102A8000012220210548FEF7A9FEFFF79BFF012246
:102A900010210248FEF7A2FE10BD00000018014000
:102AA00010B5012210210E48FEF798FEFFF78AFFAD
:102AB000012220210A48FEF791FEFFF783FF102133
:102AC0000748FEF77FFE08B1012400E00024002241
:102AD00020210348FEF782FEFFF774FF204610BD59
:102AE000001801400EB52E482E49086081152D486A
:102AF00081600021C16041614FF46021C16100200B
:102B000028494860052127480161FEF777F918B187
:102B10004F2125A000F0ECFD042000900120019041
:102B20000620029069461F48FEF724F818B1592183
:102B30001DA000F0DDFD05200090022001906946F7
:102B40001848FEF717F818B1622117A000F0D0FD61
:102B5000062000900320019069461248FEF70AF80B
:102B600018B16B2110A000F0C3FD072000900420D5
:102B7000019069460B48FDF7FDFF18B174210AA0CA
:102B800000F0B6FD08200090052001906946054838
:102B9000FDF7F0FF18B17D2103A000F0A9FD0EBDE7
:102BA000002401409C0100202E2E2F5372632F61C0
:102BB00064632E630000000008B500BF124840693E
:102BC00040F00100104948610846406900F00100EA
:102BD000009000BF00BF002205210B20FEF7CFFEB2
:102BE0000B20FEF7BFFE002205210D20FEF7C7FED9
:102BF0000D20FEF7B7FE002205211020FEF7BFFED4
:102C00001020FEF7AFFE08BD0010024000B585B0F1
:102C100014220B496846FDF7E5FA0021684601F0E9
:102C200086F90849086000F0D9FE00F01DFF00F0A9
:102C3000F3FE00F037FF00F0BDFE05B000BD000060
:102C40004C6700080000002000B585B000BF4B486D
:102C5000806940F01000494988610846806900F0A9
:102C60001000009000BF00BF00BF0846806940F020
:102C7000200088610846806900F02000009000BFB5
:102C800000BF00BF0846806940F004008861084624
:102C9000806900F00400009000BF00BF00BF08463C
:102CA000806940F0080088610846806900F00800EB
:102CB000009000BF00BF00224FF400513048FEF7E3
:102CC0008DFD00224FF400512E48FEF787FD0022B3
:102CD0004FF400412C48FEF781FD4FF40050019065
:102CE0000120029003900220049001A92448FEF7DD
:102CF000DBFB4FF480400190012002900390022002
:102D0000049001A91F48FEF7CFFB4FF480400190CB
:102D10001E4802900120039001A91948FEF7C4FB48
:102D200041F20400019000200290039001A915488F
:102D3000FEF7BAFB4FF400500190012002900020F2
:102D400003900220049001A90E48FEF7ADFB4FF45A
:102D50000040019001200290002003900220049086
:102D600001A90948FEF7A0FB002205212820FEF753
:102D700006FE2820FEF7F6FD05B000BD001002405B
:102D800000100140000C014000080140000011103B
:102D900000B587B04FF080401749086041F61F40EA
:102DA00048600021144881603221C1600021016126
:102DB00080218161FFF7B3FA18B149210FA000F01B
:102DC00097FC4FF48050039003A90B48FFF7F1FAEA
:102DD00018B14F2109A000F08BFC00200190029057
:102DE00001A90548FFF76AFA18B1562103A000F0BF
:102DF0007FFC07B000BD0000100200202E2E2F53D4
:102E000072632F74696D2E630000000010B50C48CA
:102E10000C4908604FF4E1304860002109488160A6
:102E2000C16001610C21416100218161C161FFF735
:102E300076FC18B1502104A000F05AFC10BD00002F
:102E400000440040500200202E2E2F5372632F7535
:102E5000736172742E63000010B50C480C49086051
:102E60004FF4E1304860002109488160C160016190
:102E70000C21416100218161C161FFF750FC18B153
:102E8000632104A000F034FC10BD000000480040A5
:102E9000900200202E2E2F5372632F75736172746F
:102EA0002E63000000BFFEE7704700000248006884
:102EB000C0F30220704700000CED00E010B50028C0
:102EC00007DA0A07140E054A00F00F031B1FD4543B
:102ED00003E00A07130E024A135410BD18ED00E078
:102EE00000E400E070B504460D4626463560012139
:102EF000706800F0B3FF70BD08B508490968C908DB
:102F00004FF47A72B1FBF2F14143009100BF00BF70
:102F100000994A1E00920029F9D108BD1000002036
:102F200070B504460025802C05D8002104480068AF
:102F300000F029FE05460DB9002070BD2846FCE7CB
:102F4000AC00002070B5044621460548006800F03A
:102F5000BBFE05460DB9012070BD0020FCE7000056
:102F6000AC00002070B504462646356AD5E900015C
:102F700000F074FF70BD000000BF4FF4FA7000F065
:102F8000F1FD4FF400510248FEF724FCF5E7000084
:102F9000000C014070B500EB400404EBC0040B4E84
:102FA000401E06EB84042C3C049D052801D386209A
:102FB00070BDA160A281C4E9083572B62068C168FD
:102FC00041F08001C16062B6002070BD0C0100209C
:102FD00019B1012916D0022923D10268D36823F040
:102FE0002003D3600268536923F0010353618269AF
:102FF000002A16D011B10021C06911E0C18A838A6C
:10300000C91AF9E70268D36823F08003D360026825
:10301000D36823F04003D360026A002A01D0406ADB
:103020001047704710B500F07AFF10BD10B594B08E
:1030300001200A9000040B9000200C9001200E90BB
:1030400002201190C10312914FF4E01113910AA8CC
:10305000FEF7E4FE18B1A7211AA000F049FB0F20EB
:10306000059002200690002007904FF480600890A1
:1030700000200990022105A8FEF76CFD18B1B521CA
:1030800010A000F035FB022001908003039001A8FE
:10309000FEF7C8FC18B1BC210AA000F029FBFEF71E
:1030A0004DFE4FF47A71B0FBF1F42046FFF7EAF8D9
:1030B0000420FFF7D3F800220F21501EFEF75FFC1B
:1030C00014B010BD2E2E2F5372632F6D61696E2EBA
:1030D000630000001148006840F001000F490860DB
:1030E000084640680E4908400C4948600846006898
:1030F0000C490840094908600846006820F480200F
:1031000008600846406820F4FE0048604FF41F0045
:103110008860C8030449086070470000001002403E
:103120000000FFF8FFFFF6FE08ED00E010B50248D2
:10313000FFF7D9F910BD00005803002010B5024870
:10314000FFF7D1F910BD0000100200200022026834
:10315000184B984208D0B0F1804F05D0164B9842DA
:1031600002D0164B984203D122F070024B681A43EA
:10317000104B984208D0B0F1804F05D00E4B9842CA
:1031800002D00E4B984203D122F44072CB681A430E
:1031900022F080024B691A4302608B68C3620B689D
:1031A0008362044B984201D10B690363012343619D
:1031B00070470000002C014000040040000800405F
:1031C00030B50C460021816821F47F4142EA032595
:1031D00025432943816030BD0A460021816821F0E2
:1031E000700142F0070319438160704730B50B4608
:1031F000144600210022026A056A25F001050562D5
:10320000816921F0F00141EA041122F00A021A4317
:103210008161026230BD30B50B46144600210022A8
:10322000056A25F0100505628169026A21F4704182
:1032300041EA043122F0A00242EA031281610262F3
:1032400030BD000038B504462068006800F010006A
:1032500010281ED100BF0020009020680068009058
:1032600020684068009000BF00BF0A4800684068BE
:10327000C0F180000849088040210848006800F03B
:10328000EDFD2046FFF717FA802205492046FFF79B
:1032900033FB38BDD0020020B8000020C000002061
:1032A0007041002038B504462068006800F0100026
:1032B00010281ED100BF00200090206800680090F8
:1032C00020684068009000BF00BF0A48006840685E
:1032D000C0F180000849088040210848006800F0DB
:1032E000BDFD2046FFF7E7F9802205492046FFF79C
:1032F00003FB38BD140300208C0000208800002050
:10330000F040002070B506460025746A20684069C8
:10331000C0F3C01594F83900212805D125B100204B
:10332000E084204600F050F820684069C0F3801522
:1033300094F83A00222805D125B10020E0852046E6
:1033400000F032F8E06B40F01000E0632046FFF739
:10335000E5F970BD70B505466C6A2868006800F034
:103360002000B0B90020E0852068C06820F480709B
:103370002168C8602068406920F001002168486128
:103380002068406920F0400021684861202084F8CE
:103390003A002046FFF712FB70BD70B50446656A1F
:1033A0002846FFF70CFB70BD0168C96821F49071D5
:1033B0000268D1600168496921F001010268516128
:1033C000202180F83A1070470168C96821F0C001D7
:1033D0000268D160202180F839107047F8B50446A2
:1033E00000684169C90723D00168026811F0010132
:1033F000C2F340050268C2F380030268C2F3C00250
:1034000000D00121294300D00121194300D001211E
:1034100011430DD001684168009101684168009135
:10342000016841680091016840680221009051E004
:103430000168C1F34012C16801F020018AB181B175
:1034400040682169C0B24A1C22610870A18A491EE5
:103450000904090CA18202D0218D814201D10021F1
:1034600038E025682868E968C0F3C01001F08001E1
:1034700020B319B3207925280BD1A0680678FCF772
:10348000ADFE0068805D80EA8001090601D4C007B6
:103490001FD0A068411CA16000786860A089401E10
:1034A0000004000CA08109D12068C16821F08001CE
:1034B000C1602068C16841F04001C16021680868AE
:1034C000C968C0F3801001F04001002807D000292E
:1034D00005D001212046BDE8F840FFF779BDF8BDD1
:1034E0002DE9F041044600252068006920F4405091
:1034F000E1680843216808612169A068084361699F
:10350000084305432068C06841F20C6188432843A2
:103510002168C8602068406920F44070A1690843B0
:10352000216848615F49206888425CD1FEF71CFC35
:1035300000EBC00101EB001061688900B0FBF1F6FF
:10354000FEF712FC00EBC00101EB0010616889007E
:10355000B0FBF1F06421B0FBF1F000EBC00101EB36
:103560000010A6EB8000322101EB00106421B0FBBB
:10357000F1F000F0F006FEF7F7FB00EBC00101EB05
:10358000001061688900B0FBF1F06421B0FBF1F03C
:1035900006EB0016FEF7E8FB00EBC00101EB0010A4
:1035A00061688900B0FBF1F7FEF7DEFB00EBC001BC
:1035B00001EB001061688900B0FBF1F06421B0FB01
:1035C000F1F000EBC00101EB0010A7EB800032210D
:1035D00001EB00106421B0FBF1F000F00F0030446B
:1035E000216888605BE0FEF7AFFB00EBC00101EBF8
:1035F000001061688900B0FBF1F6FEF7A5FB00EB57
:10360000C00101EB001061688900B0FBF1F064219A
:10361000B0FBF1F000EBC00101EB0010A6EB800065
:10362000322101EB00106421B0FBF1F000F0F00654
:10363000FEF78AFB00EBC00101EB00106168890016
:10364000B0FBF1F06421B0FBF1F006EB0016FEF7E1
:103650007BFB00EBC00101EB001061688900B0FB4F
:10366000F1F7FEF771FB00EBC00101EB00106168A0
:103670008900B0FBF1F06421B0FBF1F000EBC00178
:1036800001EB0010A7EB8000322101EB0010642158
:10369000B0FBF1F000F00F00304421688860BDE815
:1036A000F0810000003801400148FFF797BE00009C
:1036B0000C01002010B50448FFF7C4FDBDE8104020
:1036C0000248FFF78BBE00005002002038010020A6
:1036D00010B50448FFF7E6FDBDE810400248FFF7CB
:1036E0007DBE0000900200206401002000BFFEE7C4
:1036F00000BFFEE702E008C8121F08C1002AFAD185
:1037000070477047002001E001C1121F002AFBD161
:103710007047000030B50B4601468A780B2A04D169
:1037200002461479014D2C7000BF30BDF40000201A
:103730002DE9F04186B006460F4615469846002012
:103740000490059000F00BFC05904FF0FF324021F3
:1037500001A800F0B3FB134C1BE02078FE2817D122
:103760006078FE2814D1A41C6178204601F00EFB7D
:103770006178615C88420CD16078C01C2860A11E11
:1037800030462A68FCF72EFD012006B0BDE8F08126
:10379000641C0448044909880844A042DDD800207C
:1037A000F3E7000070410020B80000202DE9FC5F25
:1037B0004FF0000A10E0444830F81A00B0F54E6FA0
:1037C00005DA41480A3030F81A00052802DA0120EB
:1037D000BDE8FC9F0AF1010ABAF1050FEBDB3A489C
:1037E000008839494989401A322801DA0220EFE776
:1037F0004FF0010A61E0344830F81A100A3030F80E
:103800001A00081A462800DA5AE0BAF1040F52D119
:103810004FF0000A45E04FF0000B2B4830F81A102B
:103820000A3030F81A00081A1FFA80FB5846FCF7D5
:10383000D1FE264A264BCDE90001FCF7D0FD064615
:103840000F46214931F81A00FCF7C4FE8046324683
:103850003B46FCF7BEFD0446FCF7F6FE1A4921F88C
:103860001A005846FCF7B6FE184A194BCDE900017C
:10387000FCF7B5FD06460F4613490A3131F81A0028
:10388000FCF7A8FE804632463B46FCF701FD0446A5
:10389000FCF7DAFE81B20C480A3020F81A100AF15F
:1038A000010ABAF1050FB6DB142207490948FCF7F3
:1038B00099FC02208CE70AF1010ABAF1050F9ADBA4
:1038C00000BF022084E70000444200209A999999A1
:1038D0009999A93FC800002010B520480078C0B9C8
:1038E00001201E49087014221D491E48FCF77AFC6D
:1038F0001C491D4802680A6042684A6000890881C4
:1039000001F10A0018490A6802604A6842600989A0
:10391000018100201FE0134931F81010124A32F8DB
:103920001020914205DC104931F810100D4A22F8A0
:1039300010100C490A3131F810100B4A32F81020DF
:10394000914206DB084931F8102006490A3121F876
:103950001020411CC8B20528DDDB10BDF500002099
:10396000C8000020444200203A4200202DE9F041E6
:10397000A0B005460C466E462F46224639463046D4
:10398000FCF730FCA01EC1B2B81C01F0FFF93055A5
:10399000611C684601F0D0F88046404620B0BDE882
:1039A000F08100BFEFF3058008B1012070470020CF
:1039B000FCE7000010B50021064800F0B8FA0649FF
:1039C00008600846006810B94FF0FF3010BD0020B5
:1039D000FCE70000F86700080001002010B50B4864
:1039E0000068C06840F0100008490968C8600021FC
:1039F000074800F09CFA074908600846006810B9BB
:103A00004FF0FF3010BD0020FCE7000090020020C6
:103A1000786700088800002010B500210D4800F0EC
:103A2000BEF80D4908600D480068C06840F01000FD
:103A30000A490968C8600021094800F078FA094974
:103A400008600846006810B94FF0FF3010BD002034
:103A5000FCE7000098670008B40000205002002036
:103A6000B8670008C000002010B50021094800F028
:103A700096F8094908600021084800F058FA0849FA
:103A800008600846006810B94FF0FF3010BD0020F4
:103A9000FCE700008C670008AC000020A467000869
:103AA000BC00002010B50021064800F040FA06498D
:103AB00008600846006810B94FF0FF3010BD0020C4
:103AC000FCE70000CC670008F000002018B50246B3
:103AD000002004E00B5C0DF80030431CD8B2042831
:103AE000F8DB00981060009818BD0000FDF78EFE0E
:103AF000FFF79CFAFFF7A8F8FFF75EF8FEF7F2FF72
:103B0000FFF784F9FFF744F9FFF7A6F90948FEF734
:103B100041FC012251030848FDF760FE0122D10358
:103B20000648FDF75BFEFFF771F800F027F800BFCD
:103B3000FEE70000100200200010014000080140D4
:103B400001460020842901D0CA1C1044704700009F
:103B500010B500224FF400510148FDF73FFE10BDA3
:103B60000010014070B5044625460DB1294600E01D
:103B70000121084601F084FC002070BD10B501F061
:103B80005FFD002010BD70B504460E460CB9002044
:103B900070BDA06800F0C8F805462846F8E73EB5B5
:103BA00004460D460020009001900290206800908D
:103BB000606801900C2000F0FFFEA1680860A0681A
:103BC000006808B900203EBDA068006804600022BB
:103BD0000421206801F04AFEA16809684860A068D5
:103BE0000068406828B9A168086801F077FB0020E8
:103BF000E9E7684600F0D5F8A16809688860A06820
:103C00000068806828B9A168086801F067FB002097
:103C1000D9E7A0680068D6E730B504460D460CB970
:103C2000802030BD2946A06800F0F3F8F9E70000D5
:103C30002DE9FF4107460C46154602943CB9802009
:103C400000909DE8070087E80700BDE8FF8100209D
:103C500003900026681C08B9761E03E015B12E46B5
:103C600006B90126FFF79DFEB0B103AA01A960685D
:103C700002F0A6F8012802D12020009001E00020E7
:103C800000900398C0B14FF080500E490860BFF318
:103C90004F8FBFF36F8F0FE00023324601A960689A
:103CA00001F010FE012802D12020009004E00EB99E
:103CB000002000E0402000909DE8070087E8070012
:103CC00000BFC2E704ED00E013B582B0044614B9AA
:103CD000802004B010BD00200190FFF762FEA0B16B
:103CE000002301AA03A9606801F0EEFF012801D0BA
:103CF000FF20EEE7019890B14FF08050094908602D
:103D0000BFF34F8FBFF36F8F09E000231A4603A95B
:103D1000606801F005FF012801D0FF20D9E70020ED
:103D2000D7E7000004ED00E02DE9F041044600274C
:103D3000B846FFF736FE60B100BF5021EFF31180A7
:103D400081F31188BFF34F8FBFF36F8F00BF07461A
:103D500001E001F07BFA002612E020698519A068D5
:103D6000A84200D800256068405D40B90120616824
:103D70004855E168206805FB0108256103E0761CD1
:103D8000A068B042E9D800BFFFF70BFE20B100BF2A
:103D900087F3118800BF01E001F082FA4046BDE8D8
:103DA000F0812DE9F04105466868C01C8008870055
:103DB000142000F001FE04461CB32868A060E760F0
:103DC00000202061286800F0F7FD60606068C8B1DD
:103DD000296801FB07F000F0EFFD2060206848B182
:103DE000002603E0002061688855761C2868B042F0
:103DF000F8D80BE0606801F071FA204601F06EFA25
:103E0000002403E0204601F069FA00242046BDE8C2
:103E1000F08110B502460B460AB9802010BD0BB9DF
:103E20008020FBE71068984201D98020F6E71068EF
:103E3000191AD068B1FBF0F400FB141008B180200F
:103E4000ECE7D068B1FBF0F19068884201D880209F
:103E5000E4E700205468605400BFDFE73EB5044645
:103E60000D46002002900190FFF79BFDB8B102A81B
:103E700001AB012229460090204602F0FFF80128FC
:103E800002D04FF000403EBD029898B14FF08050F4
:103E900009490860BFF34F8FBFF36F8F0AE001AB92
:103EA00001222946204602F067F8012802D04FF08F
:103EB0000040E8E70198E6E704ED00E0FEB50646BD
:103EC0000F461446002001900025601C08B96D1EA5
:103ED00003E014B1254605B90125FFF762FD10B1D5
:103EE0008220009016E02B4601AA3946002002F0FD
:103EF00027FA012806D015B9002000900AE04020DA
:103F0000009007E00198002802DA8620009001E086
:103F1000082000909DE8070086E80700FEBD10B568
:103F200002F054F9012801D001F086FC10BDFEB565
:103F300004460D46B4F90800FFF702FE064602A843
:103F4000CDE90060238A9AB22B46D4E9001001F033
:103F5000E3FF012801D00020FEBD0298FCE710B568
:103F600002F02EF910BD0000F8B504460D461646C5
:103F700020680090012D01D1012000E000200246C0
:103F80003346012101A002F05DFBF8BD00000000F6
:103F90002DE9FC4106460C460027002001902546ED
:103FA00005B90125FFF7FDFCB0B1002001AB2A46A1
:103FB00009210090304602F087FB012801D0FF273D
:103FC00015E0019898B14FF080500A490860BFF39E
:103FD0004F8FBFF36F8F0AE0002003462A4604216B
:103FE0000090304602F070FB012800D0FF273846D1
:103FF000BDE8FC8104ED00E02DE9F04105460E46E8
:104000001C4807681C480068001D01F0D5F850B92D
:104010001948006890F82C10012088401749096859
:10402000814316480160681C38B936B112480168EE
:10403000091D134801F0FEF81AE07C190E480068CB
:104040004460BC4207D20C480168091D0D48006855
:1040500001F0D6F80CE008480168091D0A4800681C
:1040600001F0CEF809480068844201D20748046094
:10407000BDE8F0814C0000203800002050000020F6
:10408000B4400020400000203C00002068000020D8
:1040900010B5044601F0DAF823480068401C2249B4
:1040A00008602248006840B920480460084600685B
:1040B00001280DD100F0FCF90AE01D48006838B96C
:1040C0001A480068C06AE16A884201D8174804604B
:1040D00018480068401C1749086094F82C1001200B
:1040E000884015490968084313490860E16A01EBF3
:1040F0008101124A02EB8100211D01F09BF801F0C1
:10410000CFF80B48006868B108480068C06AE16AE7
:10411000884207D24FF0805009490860BFF34F8FA3
:10412000BFF36F8F10BD0000480000203800002052
:10413000540000206400002050000020D83F0020E0
:1041400004ED00E010B501F081F810480068D0B926
:104150000F4801F045F80F4801F042F80C480E49AD
:1041600008600C480D49086000220C210A2001F06B
:104170007DFB064908600846006820B108A1034895
:10418000006801F041F901F08BF810BD7C000020BF
:10419000C8400020DC40002074000020780000208F
:1041A000546D72510000000070B523E001F092FAE6
:1041B0001348006808B9012000E00020054602F01D
:1041C000BFF9BDB901F042F80D48C068C468201DB0
:1041D00000F0F2FF0B480068401E0A4908600A48D8
:1041E0000068401E0849086001F05AF8204600F0B7
:1041F00060F800BF044800680028D7D170BD0000F7
:10420000A0400020480000204400002070B5044673
:104210000D46206C70B1216CE0680844E060616874
:10422000E068884201D32068E0602846226CE1689B
:10423000FBF7D8FF70BD2DE9F04104460F46154647
:104240004FF00008A66B206C40B9206860BB606826
:1042500002F0C6F880460020606025E07DB939464E
:10426000226CA068FBF7BEFF216CA0680844A06028
:10427000D4E90110884217D32068A06014E03946C1
:10428000226CE068FBF7AEFF216CE068401AE0604A
:104290002168E068884203D2216C6068401AE060BF
:1042A000022D01D106B1761E701CA0634046BDE808
:1042B000F08110B50446206B01F010F8204601F0A3
:1042C0000DF810BD0146084A126812680AB90122A9
:1042D00000E000220A600A6822B9034A1268D26824
:1042E000106800E0002070477400002030B54FF4E3
:1042F0007053174800F007042CB1C01D20F00700D0
:10430000134C041B1B1B0246124C22600024114D4F
:104310006C60D018083820F007000F4C2060002493
:104320000D4D2D686C600C4D2D682C601146441AA3
:104330004C60094C24680C60084D4C682C60084D9A
:104340004C682C604FF00044064D2C6030BD0000DE
:1043500098030020140000201C00002024000020EE
:10436000200000202800002000BFFFF71DFF0648A6
:1043700000680128F9D94FF0805004490860BFF364
:104380004F8FBFF36F8FF0E7D83F002004ED00E0C0
:104390002DE9F04106460D4617469846069C0DB994
:1043A000246000E02760E66325640121204601F0D7
:1043B0006BFBBDE8F0812DE9FF5F81460F46924619
:1043C000DDE90E6B109CAAF10100216B01EB800866
:1043D00028F0070808F0070008B9012000E00020D5
:1043E00050B900BF502080F31188BFF34F8FBFF347
:1043F0006F8F00BF00BFFEE7002507E0795D04F185
:1044000034004155785D00B902E06D1C102DF5D3E4
:1044100000BF002143200155072E00D30626E66287
:1044200066640020A064201D00F0E7FE04F118007F
:1044300000F0E3FE2461C6F10700A0616462002081
:10444000E06484F8500049464046039A00F062FB5D
:104450002060BBF1000F01D0CBF80040BDE8FF9F0A
:104460002DE9F04706460D4617469846DDE90894C3
:104470000DB1012000E0002050B900BF502080F3B2
:104480001188BFF34F8FBFF36F8F00BF00BFFEE7F0
:104490005CB1FFF757FE2660A561E761C4F8208094
:1044A000C4F82490201D00F0A8FEBDE8F0870000AD
:1044B00010B5002407E004EB84010F4A02EB8100F1
:1044C00000F08EFE641C072CF5D30C4800F088FE2B
:1044D0000B4800F085FE0B4800F082FE0A4800F011
:1044E0007FFE0A4800F07CFE044809490860044841
:1044F0000849086010BD0000D83F0020644000203B
:10450000784000208C400020A0400020B4400020D3
:104510003C0000204000002010B50146164800E095
:10452000006803688B42FBD30246436813448B4206
:1045300004D143684C682344436001460A464B68F3
:1045400013440468A34211D10C4C03682468A342AD
:1045500008D04B680468646823444B6003681B6898
:104560000B6005E0054B1B680B6001E003680B6006
:10457000884200D0016010BD140000201C00002003
:104580002DE9F04104460D4616461F464FF000083F
:1045900065602461B5420CD8F01BA169884202D342
:1045A0004FF0010811E0211D0948006800F028FEC5
:1045B0000BE0BE4204D2BD4202D34FF0010804E03A
:1045C000211D0448006800F01BFE4046BDE8F08154
:1045D000780000207400002070B5054600F036FE1B
:1045E000A86B08B9012400E0002400F059FE204621
:1045F00070BD70B5054600F029FEA86BE96B8842D6
:1046000001D1012400E0002400F04AFE204670BDE4
:10461000F8B505460F4616480068C068C468201DF6
:1046200000F0CAFDE06901281DD1A06941192B469F
:104630003A462046FFF7A4FFA8B1002003462A46C9
:1046400001460090204602F03FF8064656B900BFEA
:10465000502080F31188BFF34F8FBFF36F8F00BFDF
:1046600000BFFEE700BF2046616A8847F8BD000032
:104670007400002070B586B06AE00398002867DBFC
:10468000059C606908B9012000E0002010B9201DD8
:1046900000F092FD02A800F0BDF8054603980A2834
:1046A00054D2DFE800F009050731334F06083234F1
:1046B00000BF00BF00BF00BF0498A2698118034675
:1046C0002A462046FFF75CFFE8B12046616A88472A
:1046D000E069012817D1002000900498A1694218D0
:1046E00000231946204601F0EFFF064656B900BFE9
:1046F000502080F31188BFF34F8FBFF36F8F00BF3F
:1047000000BFFEE700BF22E000BF20E000BF04982A
:10471000A061A06908B1012000E0002050B900BFED
:10472000502080F31188BFF34F8FBFF36F8F00BF0E
:1047300000BFFEE7A06941192B462A462046FFF735
:104740001FFF04E0204600F0C9FD00E000BF00BFED
:1047500000231A4603A90448006801F0B3F80028B2
:104760008BD106B070BD00007C000020F8B5054676
:104770000C4600F0AFFF684600F04CF80646009883
:1047800020BB44B9B54206D801F0DAFE31462846CE
:10479000FFF73EFF1CE03CB10E480068006808B916
:1047A000012000E000200446A91B22460A480068B8
:1047B00000F040FE01F0C4FE50B94FF080500749B0
:1047C0000860BFF34F8FBFF36F8F01E001F0B8FEB9
:1047D000F8BD0000780000207C00002004ED00E01F
:1047E0000A490968096809B9012100E0002121B1DD
:1047F0004FF0FF31064A116006E004490968C968B4
:10480000C868034A41681160704700003C000020FE
:104810006800002070B5044601F0E8FC0546074832
:104820000068854204D200F00BF80120206001E00E
:104830000020206001480560284670BD84000020EB
:104840002DE9F84332E024480068C0680568224832
:104850000068C068C468201D00F0AEFC2046616A94
:104860008847E069012821D1A0694619AE4207D9DD
:1048700066602461211D1848006800F0C1FC15E045
:10488000002003462A4601460090204601F01CFF06
:10489000074657B900BF502080F31188BFF34F8FF0
:1048A000BFF36F8F00BF00BFFEE700BF0A4800687C
:1048B000006808B9012000E000200028C3D00648A5
:1048C000D0F8008005480068034908600348C0F834
:1048D0000080BDE8F883000074000020780000200C
:1048E0000E480068401C08B9012000E0002050B9C3
:1048F00000BF502080F31188BFF34F8FBFF36F8F3D
:1049000000BF00BFFEE700BF502080F31188BFF357
:104910004F8FBFF36F8F00BF00BFFEE72C0000205A
:1049200008B500BF6846FFF7CDFC04462046009955
:10493000FFF71CFFFFF79EFEF4E770B5044600F09A
:1049400085FC94F9455010E0606A08B9012000E048
:10495000002038B904F1240001F0A6FD18B100F0E0
:10496000BDFD00E003E0681E45B2002DECDC00BF99
:10497000FF2084F8450000F093FC00F067FC94F9F8
:10498000445010E0206908B9012000E0002048B937
:1049900004F1100001F088FD08B100F09FFD681ED1
:1049A00045B200E001E0002DECDC00BFFF2084F800
:1049B000440000F075FC70BD2DE9F04104464FF055
:1049C000000800F087FE4648006808B9FFF78EFC33
:1049D00044480068204000286BD1D4B1083404F06A
:1049E0000700B0B104F00700C0F10800044404F06F
:1049F000070008B9012000E0002050B900BF502096
:104A000080F31188BFF34F8FBFF36F8F00BF00BFDC
:104A1000FEE7002C4DD034480068844249D8334E1C
:104A20003046056801E02E462D686868A04202D233
:104A300028680028F7D12A480068854239D03068B4
:104A400000F10808286830606868001B102819D930
:104A50002F1907F0070008B9012000E0002050B925
:104A600000BF502080F31188BFF34F8FBFF36F8FCB
:104A700000BF00BFFEE76868001B78606C603846C6
:104A8000FFF74AFD184968680968081A164908605E
:104A90000846006816490968884203D2124800682F
:104AA000134908600F496868096808436860002076
:104AB000286001F045FD08F0070008B9012000E07A
:104AC000002050B900BF502080F31188BFF34F8FF2
:104AD000BFF36F8F00BF00BFFEE74046BDE8F08127
:104AE0001C000020280000202000002014000020CE
:104AF000240000200648006830B10549096801F12A
:104B00004800896C491C016001480068704700003A
:104B100038000020001F4FF080730360001F21F059
:104B200001030360001F034B036014380260203848
:104B300070470000E148000870B586B004460D4695
:104B4000002004900590FFF70AFA059004A8AAB285
:104B5000094B214600900220FEF71CFA064616B1CA
:104B6000002006B070BD4FF0FF32012101A8FFF711
:104B7000A5F90120F5E70000E52E000801229103C8
:104B80003448FCF72BFE41F28830FEF7EBFF60E083
:104B900031480078002838D0FCF726FE2F490968F4
:104BA000401A2F49884226D9FCF71EFE2B4908607F
:104BB00029480078401E28490870084600780128D6
:104BC00008D1002241032748FCF708FE4FF0FF30D0
:104BD000FEF7C8FF00224FF480411E48FCF7FEFD9F
:104BE000C820FEF7BFFF012291031A48FCF7F6FD2B
:104BF000C820FEF7B7FF4FF480511648FCF7E2FDDE
:104C000020BB00201449087020E013480078E8B960
:104C10004FF480510F48FCF7D5FDB8B100224FF496
:104C200080410C48FCF7DAFDC820FEF79BFF01220B
:104C300091030848FCF7D2FDC820FEF793FFFCF76C
:104C4000D3FD064908600420034908706420FEF77C
:104C500089FF9DE7000C01400401002008010020AD
:104C6000C0D401000010014098B04048FDF723FD7A
:104C700080223F493D48FDF73FFE00BF4FF0FF3225
:104C8000402115A8FFF71AF93A4800881F28F5D1E6
:104C9000374800783A28F1D135490B3111A8FEF791
:104CA00015FF35491198FBF7C1FA119030490F31C2
:104CB00012A8FEF70BFF30491298FBF7B7FA1290D3
:104CC0002B49133113A8FEF701FF2B491398FBF76B
:104CD000ADFA1390FCF788FD28490968401A21288D
:104CE00043D9FCF781FD254908604FF480512448E1
:104CF000FCF768FD002838D11420FEF711F90446AE
:104D0000002C31D014212046FBF785FAFE202070BC
:104D100060701020A0701420E0701A491198FBF701
:104D200085FA0546FBF763FC00B2A080154912988E
:104D3000FBF77CFA0546FBF75AFC01B2E18011490A
:104D40001398FBF773FA0546FBF751FC01B221817A
:104D50000D480168C4F80A104168C4F80E100089B3
:104D600060822046FEF7EEF800BF87E79002002041
:104D7000F04000208C000020E12E654290000020D1
:104D8000000C014000007A443A42002010B502466F
:104D90000023002003E0145C1C44E3B2401C884262
:104DA000F9DBD843C0B210BDA2B00D48FDF783FCBB
:104DB00080220C490A48FDF79FFD00BF00BF6B46EB
:104DC00001AA802102A8FEF7B3FC044604B904E05E
:104DD00002A80199FEF79EFCF1E700BFEEE7000094
:104DE00050020020704100200EB500BFFCF7FCFC13
:104DF00013490968401A052821D9FCF7F5FC104928
:104E000008604FF0FF320F4801686846FEF710FF58
:104E1000019C009820280CD15CB1C1010A48FCF724
:104E2000D1FC30B9E578802D03DC29462046FEF719
:104E30009DFD214603480068FEF7EEFE00BFD5E762
:104E4000C4000020AC000020000C01408EB0C94915
:104E500003C9CDE90C01FFF782F80C90C548083072
:104E600000680B900CAA01210BA8FFF77DF80A90AF
:104E700032210A98FFF78CF800BF00BF4FF0FF32D5
:104E8000102107A8FFF71AF8BB49BC4802680A605E
:104E900042684A60008908810024FBE0B64931F885
:104EA0001410C1F30B00FBF77BFB8346FBF7E5FB1C
:104EB00081464FF06632B24BFBF791FA074600226B
:104EC000B04BFBF7FEFA0546FBF71AFCAE4941F87A
:104ED000240051F82400AD49FBF7A8F90546FBF77B
:104EE0009FFBAB4921F81400AA48007800286ED136
:104EF000084630F81410A84830F81400814205DA4A
:104F0000A54830F81400A24921F81400A04830F850
:104F10001400A1490A3931F81410884206DD9E4870
:104F20000A3830F814009A4921F814009A480A38CF
:104F300030F814100A3030F81400081A1FFA80F9FB
:104F4000954931F81400FBF745FB0746884648466B
:104F5000FBF740FB82464FF06632904BFBF73FFA7F
:104F60003A464346CDE90601FBF792F9CDE908013F
:104F7000874931F81400FBF72DFB0546DDE90823CE
:104F8000FBF78EFB24D24846FBF724FB4FF066323A
:104F9000824BCDE90801FBF722FA82468B467C4919
:104FA00031F814207C4931F81410511A5A2201FBAF
:104FB00002F0FBF7FEFA074652465B46FBF781FA22
:104FC0000546FBF741FB724921F814005FE05FE002
:104FD000714931F81400FBF7FDFACDE906014846A6
:104FE000FBF7F8FA82464FF066326C4BFBF7F7F9A5
:104FF0000546DDE90623FBF74BF907468846644979
:1050000031F81400FBF7E6FA3A464346CDE90801C9
:10501000FBF75EFB3BD84846FBF7DCFA0546604AE7
:10502000604BFBF7DCF9CDE904014846FBF7D2FA07
:1050300005464FF06632594BFBF7D1F907468846D3
:10504000534931F81420544931F81410501AFBF721
:10505000B0FA82463A464346FBF7BBF90022524B70
:10506000CDE90001FBF7BBF9CDE90201DDE904233D
:10507000FBF727FA00224C4BCDE90601FBF708F9B4
:10508000CDE90801FBF7E0FA414921F8140000BF1F
:10509000601CC4B2052CFFF601AF3E480078012821
:1050A00002D1FEF719FCE9E63A480078022834D12B
:1050B000002038490870FCF797FB3C490968401A02
:1050C00042F21071884207D9FCF78EFB374908601D
:1050D000FEF76CFB364908700A20FEF743FD0620F8
:1050E000FDF71EFF044674B100202060A080FE2062
:1050F000207060700620A070E070FEF757FBA08063
:105100002046FDF71FFF00202A49087014220021C5
:1051100021480A3800F02CFBB0E61E48007803282E
:10512000C1D10E20FDF7FCFE04460CB30E21204633
:10513000FBF771F8FE20207060700C20A0700E202C
:10514000E07000250EE0104951F825000F49FBF7EB
:105150006DF80646FBF764FA81B2201D20F81510A1
:10516000681CC5B2052DEEDB2046FDF7EBFE00BF47
:1051700084E60000E0670008304200209001002033
:1051800066660A400000B040F041002000007A440A
:105190003A420020F4000020D20000206666D63F8C
:1051A000CDCCCCCCCCCCE43F00805640F8000020E5
:1051B000F6000020F500002001460A69D1E901301F
:1051C0009860D1E9010358605068884201D188682D
:1051D0005060002008611068401E10601068704721
:1051E00000F1080141604FF0FF31816000F10801DA
:1051F000C1600161002101607047002101617047B9
:1052000010B502460B685C1C0CB9106907E002F18E
:10521000080000E04068446824689C42FAD9446869
:105220004C604C68A160886041600A611468641C2D
:10523000146010BD42684A6093688B60936859603F
:105240009160086103685B1C0360704700BF5020D9
:1052500080F31188BFF34F8FBFF36F8F00BF0E48ED
:105260000068401C0C49086008460068012812D1FB
:105270000A480068C0B208B9012000E0002050B917
:1052800000BF502080F31188BFF34F8FBFF36F8FA3
:1052900000BF00BFFEE770472C00002004ED00E0D7
:1052A0000D48006850B900BF502080F31188BFF34B
:1052B0004F8FBFF36F8F00BF00BFFEE70648006847
:1052C000401E054908600846006820B9002080F3A8
:1052D000118800BF00BF70472C00002070B5064643
:1052E0003546002E3FD0083D2C461F4960680968AE
:1052F000084008B1012000E0002050B900BF502054
:1053000080F31188BFF34F8FBFF36F8F00BF00BFD3
:10531000FEE7206808B9012000E0002050B900BF76
:10532000502080F31188BFF34F8FBFF36F8F00BF02
:1053300000BFFEE70C4960680968084098B1206822
:1053400088B90949606809688843606000F0C2F95B
:105350000649606809680844044908602046FFF768
:10536000DBF801F0EDF870BD2800002020000020DF
:10537000064800684FF47A71B0FBF1F0401E4FF020
:10538000E0214861072008617047000010000020FC
:1053900070B5FAF7FDFE0446102C16D304F1E02098
:1053A00090F8F05315480078854201DB012000E0B9
:1053B000002050B900BF502080F31188BFF34F8FF9
:1053C000BFF36F8F00BF00BFFEE70D48006800F419
:1053D000E0600C490968884201D8012000E0002003
:1053E00050B900BF502080F31188BFF34F8FBFF337
:1053F0006F8F00BF00BFFEE770BD000030000020CF
:105400000CED00E034000020024600200BE0084BC9
:1054100053F8303033B9064B43F8301003EBC00378
:105420005A6002E0401C0828F1D300BF704700001A
:10543000983F00202DE9F04105460E4617462C46C0
:10544000FFF704FF94F94400401C10B9002084F8D1
:10545000440094F94500401C10B9002084F8450030
:10546000FFF71EFFA06B28B93A46314604F124002D
:1054700000F056F82046FFF760FABDE8F081000022
:1054800070B504460025D4B11248006808B901205F
:1054900000E0002050B900BF502080F31188BFF316
:1054A0004F8FBFF36F8F00BF00BFFEE700F012F910
:1054B00000212046FEF7A0FD01F042F805463DB967
:1054C0004FF0805004490860BFF34F8FBFF36F8FD8
:1054D00070BD00007000002004ED00E001200149D3
:1054E000086070475C00002070B504460D4654B952
:1054F00000BF502080F31188BFF34F8FBFF36F8F31
:1055000000BF00BFFEE70548016818312046FFF7DD
:1055100077FE01212846FEF76FFD70BD38000020A0
:1055200070B505460E46144655B900BF502080F3AD
:105530001188BFF34F8FBFF36F8F00BF00BFFEE72F
:105540000648016818312846FFF774FE0CB14FF089
:10555000FF3621463046FEF74FFD70BD3800002073
:1055600070B505462C46002D4BD02649E06A0968E7
:10557000C96A884245D2A06900F0004028B9214894
:105580000068C06AC0F10700A061E16A01EB810117
:105590001D4A02EB81016069884201D1012000E0CF
:1055A000002050B3201DFFF707FE78B9E06A00EB3A
:1055B0008000154951F8200040B994F82C100120C2
:1055C0008840124909688143104801600D4800680D
:1055D000C06AE06294F82C10012088400B490968E9
:1055E00008430A490860E16A01EB8101064A02EBBF
:1055F0008100211DFFF71EFE03E002480068C06A1B
:10560000E06270BD38000020D83F0020500000202C
:1056100050B900BF502181F31188BFF34F8FBFF302
:105620006F8F00BF00BFFEE70349096801600349AF
:105630000968416070470000600000204C000020B5
:105640001CB51D4800210B468022CDE900101BA18E
:105650001C4800F061FC0446012C02D101F00AF85C
:105660000446012C15D100BF502080F31188BFF3F0
:105670004F8FBFF36F8F00BF4FF0FF3012490860AC
:1056800001201249086000201149086000F084F8E8
:1056900010E0601C08B1012000E0002050B900BFFC
:1056A000502080F31188BFF34F8FBFF36F8F00BF7F
:1056B00000BFFEE71CBD00006C00002049444C45C3
:1056C000000000006943000868000020540000202A
:1056D0004C00002002480068401C014908607047E7
:1056E000700000201D48006818B101201C490860A6
:1056F00032E000201A4908601A480068B0FA80F0C9
:10570000C0F11F0101EB8100174A52F8200008B1D7
:10571000012000E0002050B900BF502080F3118824
:10572000BFF34F8FBFF36F8F00BF00BFFEE701EBEA
:1057300081020D4B03EB820042685268426000F127
:1057400008024368934202D142685268426042684C
:10575000D268064B1A6000BF70470000700000203E
:105760005C00002050000020D83F002038000020BE
:105770002DE9F04104460D461646FCF735F805497B
:1057800008602746324629463846FBF7ACF9BDE8A3
:10579000F0810000FC0000201CB522480146097879
:1057A0000191FF21024611700146097800919DF890
:1057B000001001F050011C4A117007211B4A1160B2
:1057C00009E01A490968491E184A11609DF800103D
:1057D0004906090E00919DF8001001F08001802912
:1057E000EFD0124909680902104A11601146098870
:1057F00001F4E06111600B4A019911700C480068D6
:1058000040F470000A4908600846006840F07040A3
:105810000860FFF7ADFD002006490860FAF782FC3A
:1058200000201CBD00E400E0300000203400002017
:1058300020ED00E02C00002010B500BF502080F3C8
:105840001188BFF34F8FBFF36F8F00BF00F0D4FC00
:1058500018B14FF080500449086000BF002080F369
:10586000118800BF10BD000004ED00E02DE9F843F1
:1058700005460E4690460DB1012000E0002050B9CB
:1058800000BF502080F31188BFF34F8FBFF36F8F9D
:1058900000BF00BFFEE70EB9002701E005FB06F7D9
:1058A00007F14800FFF788F8044644B104F14809BD
:1058B00043464A46314628460094FEF769FD204695
:1058C000BDE8F8832DE9FF4782B005460E461F4626
:1058D0004FF0000A2C4654B900BF502080F31188C5
:1058E000BFF34F8FBFF36F8F00BF00BFFEE70EB94E
:1058F000206C08B9012000E0002050B900BF502002
:1059000080F31188BFF34F8FBFF36F8F00BF00BFCD
:10591000FEE700F05BFC08B9049808B9012000E03C
:10592000002050B900BF502080F31188BFF34F8F83
:10593000BFF36F8F00BF00BFFEE700BFFFF786FC1D
:10594000D4F83890B9F1000F3DD0D4F80C8031462E
:105950002046FEF75BFCDFB9A9F10100A0632068D7
:1059600010B9FFF7C7F86060206908B9012000E0AE
:10597000002010BB04F1100000F096FDE8B14FF0DC
:10598000805040490860BFF34F8FBFF36F8F14E022
:10599000C4F80C80606A08B9012000E0002060B9FA
:1059A00004F1240000F080FD38B14FF080503549FB
:1059B0000860BFF34F8FBFF36F8FFFF771FC0120BB
:1059C00006B0BDE8F087049818B9FFF769FC00201D
:1059D000F6E7BAF1000F04D16846FFF719FE4FF061
:1059E000010AFFF75DFCFFF775FEFFF72FFC94F946
:1059F0004400401C10B9002084F8440094F945008C
:105A0000401C10B9002084F84500FFF749FC04A9A8
:105A1000684600F03BFA40BB2046FEF7DDFDF0B1E2
:105A2000206830B9FFF712FC6068FFF799FDFFF7B7
:105A300037FC04F124000499FFF756FD2046FEF7D9
:105A40007CFF00F07DFD00287FF478AF4FF08050A0
:105A50000C490860BFF34F8FBFF36F8F6EE720468E
:105A6000FEF76BFF00F06CFD68E72046FEF765FF70
:105A700000F066FD2046FEF7AFFD0028EED00020C6
:105A80009EE7000004ED00E070B505460E462C468A
:105A900054B900BF502080F31188BFF34F8FBFF37C
:105AA0006F8F00BF00BFFEE7FFF7D0FBD4E90F12F6
:105AB000206801FB020060600020A0632068A060F5
:105AC000E06B401E226C216800FB0210E060FF20AA
:105AD00084F8440084F845009EB9206908B9012083
